:2000000000200020110000001D0900001D0900001C4A1D4B70B51A601C4B1D4D1A68102350
:20002000134000D12B602B68802B29D1194B1C79E4B2012C14D90021052000F0CBF8012115
:200040000400052000F0C6F8E4B2C0B2002C03D0041E05D0032403E0441EA0410224241A1A
:200060000023210002202B6000F0B4F8002807D0012C05D82100022000F0ACF800F0FEF82D
:2000800001F0DAF86588EDAC3800034054000340900000209C000020000000000000000099
:2000A000000000000000000000000000000000000000000000000000000000000000000040
:2000C000000000000000000000000000000000000000000000000000000000000000000020
:2000E00088030031626E0100B1110021000000000000000000000000000000000000000090
:2001000010B5064C2378002B07D1054B002B02D0044800E000BF0123237010BD100100203D
:20012000000000003C130000084B10B5002B03D00749084800E000BF07480368002B00D165
:2001400010BD064B002BFBD09847F9E700000000140100203C130000980000200000000090
:2001600018234343F0B5134CE3189D689A8A002D01D10D701CE0104B8600F658C2239B006F
:20018000F7581F231F403B1C082F00D908239BB20B70D021D3189BB28900934204D97758E2
:2001A000AF54013292B2F8E7182358432418A282F0BDC0462C01002040130000034A0449C3
:2001C00013689BB20B4313607047C0460CED00E00400FA05013810B50B2830D8090249422E
:2001E00001F094F806080A0C0E10141216191B20164B13E0164B16E0164B0AE0164B12E067
:20020000164B0BE0164B09E0164B02E0164B00E0164BC91815E0164B05E0164BC918087885
:20022000C0B212E0144BC9180A7848788C780002230418430300C8781343000604E001BE0E
:2002400000210B7848780002184310BDC0FF0100C1FF0100C5FF0100C9FF0100D0FF010031
:20026000D1FF0100D6FF0100D2FF0100D4FF0100D8FF0100DCFF0100E0FF01000047000056
:200280000122024B60331A707047C0462C010020F7B5C37D827D1B0213430122324D0100C6
:2002A0009446AB425DD182784478CB78120222431B0413431A000B791B06134351D08A7A28
:2002C0004C7ACB7A120222431B0413431A000B7B1B06134345D08A794879120202431202C8
:2002E000501CFF30214EC418B4423AD80F78040000210133FF339B180193019B834205D081
:20030000037801309C466144C9B2F6E701234942C9B29C468F4224D1631CFF33B34220D8E2
:20032000023B5B88AB421CD1FF34217AE37909021943607A00230A290ED080250C4CAD007A
:20034000141952195118A14204D0227801349B18DBB2F8E75B42DBB2C31A581E8341DBB229
:200360009C466046FEBDC04659430000FFFF01000A020000F0B5214A214B85B0D158019220
:200380000293CB0338D50024FF272600E3B200930F230025634303931A48039B02005B194C
:2003A00064321B01D218117AC9B2FF2913D0C318986E01389866986E00280CD1124817728A
:2003C0004430025D013AD2B202551A6F002A02D01B6F0098984701350F2DDDD10A4B4433C2
:2003E0001B5D002B00D001260134022CCED1002E02D1019B029A9E5005B0F0BD001000E0E8
:2004000010D000002C0100202C030020134B8200D35830B51A68F821520052081A60182275
:2004200050430F4A102510180222027100200D4A0D4C98500122090152425A501959A9435B
:200440001951F42109015A5080315A508021D8661A6809060A431A6030BDC0464013000091
:200460002C010020880F0000480F0000654B8200F0B5D458002385B002AAD371624B060043
:20048000E25801231A4206D0604962589A436250E8221201A3505E4B0125E3580093022308
:2004A000009AFF331A4202D000231D000093009BDB063FD518277743564BDF193A79019306
:2004C000042A0BD002ABD91D3000FFF749FE0521BA8A3B6901203971984705001823734355
:2004E000019A8020D31802221A7100229A8281239B00E25840020243E250E158464A11409D
:20050000E1500133FF33E1580143E150E1580A40E25001224149635893436350F8231021A4
:200520001B01E2503E4AA3588B43A350F42330221B01E250009B5B0639D5E8220127120123
:20054000A3583B43A35018237343324AD3181A79022A29D1626ED2060DD5042100221971C3
:2005600010001B69984700281ED0F8231B01E7502A4BE75003E005221A71002D14D0F4231B
:20058000302210211B01E250254A0125A3580B43A350244B1A004632925D002A01D1E56682
:2005A00005E04A339D5502E002230025E366F423009A1B01E250002D03D13000FFF726FF27
:2005C0001EE0194BE758FB0709D518237343114A0421D31800221B69100098470500F82389
:2005E0001B01E750114BE758FB0704D502ABD91D3000FFF7B5FDFC231B01E750002DDCD06C
:2006000005B0F0BD401300008C0E0000880E00004C0F00002C010020FFFFFEFF880F0000BB
:20062000480F00002C0300208C0F0000CC0F000010B50020FFF71AFF10BD0000F7B500F041
:2006400029FE1F4B019019001F004E31FF31CA7D4E37002A2FD04C7C002C2CD1E6208446DB
:200660004D33FF33DE8ABA195278BE5D0092154A9444604606706846150001260078E73248
:20068000107068354E74AA790F493243AA71DF220D682A400A601021DA8AFF31223292B2C9
:2006A0008A4201D8DA8200E0DC82054B4E33FF33DA7D013ADA75019800F0F0FDF7BDC046E7
:2006C0002C0300202C04002000020440012110B5104C084213D000220F4B4E33FF335A74C8
:2006E000DB7D934209D10D4A926E137053702200683293798B43937101E0FFF79FFF6834AB
:20070000A379002B04D0DF23054A11680B40136010BDC0462C0400202C030020AC050020F3
:2007200000020440F0B500254B4BCBB0029501900395984200D98AE0802248495200E8311D
:200740000AA800F0EDFDFF22454B464C0893464E464B08AF7A6027603360C04623681B0FA4
:200760000F2B03D1236813401D0004E023681B0F0A2B00D025680295029D002D69D100F0B8
:2007800089FD3B4A3B4B04A96C320493059221603949344B3160C0462168090F0F2902D18A
:2007A0001D68EDB204E01968090F0A2900D01D680395039B002B12D1304D2A492560304DDA
:2007C0003560C04625682D0F0F2D02D10B68DBB204E00D682D0F0A2D00D00B680293029B65
:2007E000002B18D1274908910199089D09042943254D089127601B493560C04625682D0FCA
:200800000F2D02D10B68DBB204E00D682D0F0A2D00D00B680293039B002B15D11B4D06A95F
:200820000695079221601A490E4A3160C0462168090F0F2902D11368DBB204E01168090F88
:200840000A2900D01368039300F028FD01E00423029302984BB0F0BDFF0100002C04002040
:20086000B6D70000080010400400104004000080AC050020B6E9000016000080B6E8000017
:2008800015000080B6D8000005000080B6EA000017000080F8B5050000F0FCFC1E4B040072
:2008A0001A0019001F004E32FF32D07D4D31FF314E378A8A082815D1002A02D11132FF321A
:2008C0008A8219004D33FF339A8A0025223A93B281224E31CA54CB1820005D7000F0DEFC7D
:2008E000280017E00026BD54551CADB27E551025223292B2FF35AA4201D88A8200E08E823D
:200900004E330130FF33D875FFF798FE200000F0C5FC0120F8BDC0462C03002010B500F069
:20092000C1FC03680C2B00D1FEE7FEE770B5012852D10F233F4D6C79290026092340022AC2
:2009400018D8012A0ED00024A64270D1022B07D1394B2A79E8339B18384A0400936066E098
:20096000002B64D1344B0A7968339B18334A012493605CE0002B13D00400002E4CD1022B6C
:200980004AD12D482C79023AE830FE3392B200191B1B9A4200D91A00063100F0C1FC3AE03D
:2009A000274B46331870002C0FD12B79062B0CD1214BA97968339B790B4206D021482034E9
:2009C0000168A143CBB22343036001241B4B023A92B21C73DA811FE0002404291CD18223AD
:2009E0000826194D9B00EA58EA3B1449FF3B13408C68F31ADBB220001A1CB34200D9321C77
:200A0000D2B2A31890229200834203D004780130AC50F9E78B600124084B197BC9B2002997
:200A200005D1812203485200043000F067FC200070BDC0462C0600202C0400202C070020D1
:200A40002C0300200002044000000540F7B50122374C384D2368384E9343236000233748D9
:200A60009A002900032B00D8B15801338150232BF6D172B6FF22324B01271A600022314B84
:200A800007261A60304B20321F60304B304D1A608022304B92021A6003222F4B1A602F4B33
:200AA00021321A602E4B123A1A6000F0F3FB2B680190B3432B602B4B2B4A1B782B49DBB228
:200AC00013602B4A1368B34313602A4B0A6818787F239A43034013430B60322000F0D0FB43
:200AE00005222B683220B34313432B6000F0C8FB06222B680198B34313432B6000F0CEFB7C
:200B000080221D4B52001A601C4A1D4B1A6040221C4B1A6000221C4B1A601C4A3B00116857
:200B2000002900D11160226813432360F7BDC046000010401D090000000000000000002097
:200B400000050240000102400801044000020440080F034008020440000504400805044036
:200B6000300010407DF3FF0F0C0F0340180F0340100F034064F3FF0F0002014000FF008026
:200B800000000140280003400001014090000020F0B5D84C81222500D748D84B87B0E63592
:200BA0005200002104309D60260000F0A7FB8C22D3486836520000214E3000F09FFB802255
:200BC0000021300000F09AFB952391223370CD498D3B737092008A58212172802200A432D0
:200BE00011601322B2802200200094321E391170C54A0830E267C267C44AC5499566C54A5E
:200C0000012513700722A1670434E167C24CC34E2368C34F9343053A13432360336878209D
:200C2000AB43DBB22B43336000F02AFB3B682B4201D1402310E00722236878209343043A8E
:200C4000134323603368AB43DBB2336000F018FB3B682B4202D04223AE4A13700722236899
:200C6000802193432360AB4BAE4C1E780023AE4A2360C12022668122800092004902E366A4
:200C8000A1502150A949F42563500121FE2749422D016151A64D3F046351083D6151A54DAF
:200CA0006351083D615175003D43C427BF002168E5510825113FFF35FF3FE5510137FF3798
:200CC000E5519D4D04272943216001219B4D8C4629700221E970297187496E700431A96065
:200CE00081214900A9819649AB822961FE21A970A7502750265893490E402650A05801404C
:200D0000A15042228949FF3262506146894AA1508D498E4A116080218D4AC90011608D49B7
:200D20008D4A886802408020400402438A6062B6724E8A483374FFF7ABFA00960294754EBC
:200D40000195002801D0009B1F748548FFF7A0FA002805D00822009B1B7C1343009A1374A9
:200D6000804B81481A68190092B2824208D100221A60009B01321B7C1343009A137495E076
:200D80001A681868009B92B21C7C80B2230711D4764B984212D004237548234000D02BE2F8
:200DA00082421AD06E4A6D48D469C569AC4207D202000EE00423234004D077E001230CE031
:200DC000012306E06A4CA24207D0684A904204D0624A928A6748824201D1002204E066487F
:200DE000824202D0FA229200728033717788BFB2002F04D180230B60FFF7E0F956E000236F
:200E0000FF21019A01986032137064301A018218013311720F2BF9D10024394B574D4433A2
:200E20001C70574E574A584BAC51EA50574B584A1A6000F02FFAFF23AC460396019E643649
:200E40002201B5182D7AE1B2FF2D00D10B00B218127A002A07D12A4A44321378013BDBB2CA
:200E600013700B0004E001340F2CE9D1FF2B1BD0019A019964321B019F52CD18D3180022F7
:200E8000444929671A721E4AAF66130044331978002904D15B78DBB2002B00D18DE14432D3
:200EA00013780133DBB2137000F0F8F98020FFF7F1FC0822002104A800F020FA0D499420F4
:200EC0000A00009B68321B7C107053705A0703D5802204AC920007E0204A52681202120C9F
:200EE00001321402E03492B21B0755D5802304A89B0059E02C0400202C0600202C070020ED
:200F00002C03002000F0FF0F626E0100AC050020880300319C0000200801044000010440D8
:200F2000040104400000054088280040480F0000880F0000C80F0000000100802C010020A0
:200F40002D090000FFFFFEFF310600006800002000E100E000050440FFFFFFF8C0FF0100E2
:200F6000C0FE0100900000204C420000324200003142000059430000FFFF0000001000E003
:200F800010D00000BF5D000014D000003C00002075030000810200009A4B5B681B021B0C2E
:200FA00001331802E0309BB20F000E00E0256837019778369C4688CD88C60D00803548CC24
:200FC00048C5883118C818C1019B8F4F1A8562465A851423009A538213228C4B7A81FB80CA
:200FE0003B810193009B1B7B002B00D1B7E0884C63791B0900D09CE0009B2079DA890638E8
:20100000D2B2062800D9E8E000F080F904E708E72A333B00A079FFF759FB8AE0012A00D8D2
:20102000DBE0A2790523522A00D07FE0E479002C0FD0012C7AD1202076490A688243D3B26C
:2010400003430B6072B60022734B1A60FFF7B6F86FE00720FFF73AFB2000FFF7D7F906E04C
:20106000A2790523502A61D1009B4F3A1A7502235CE0A379012B00D1A7E0022B55D16148D1
:20108000A4E00523032A51D9A279462A4ED1E279012A2FD1009B1A7D0723002A46D0657AA2
:2010A000227A2D021543009A528AAA423ED8FA88AA4202D23A89AA4238D1019B9D4201D14E
:2010C000504E04E0FF235B009D420CD1534E3000FFF7DEF80023984200D1F369E2225049F1
:2010E000013352008B502800FFF71CFB0223002800D00533E279002A18D1009B1A7D07233B
:20110000002A13D0617A227A090211437A898A420CD2019A914209D8802241480902520068
:20112000E83000F0FDF8032300E009231800FFF7B1FB8122364B5200181D002100F0DEF834
:201140000022009B1A73374B19004A3346310A701978914203D01A70029B0132DA66009BD0
:20116000314C1B7D002B1DD000F094F82100002264311301CB181D001B7A0835002B2ED0DF
:2011800001320F2AF5D1274B44331A78002A03D15B78DBB2002B2BD000F080F82300002271
:2011A00060331A7060342378002B00D11AE78022194B1A60FFF702F814E764461B496350BA
:2011C00007236146039C0B5169E61448FFF760F802230028AAD00633A8E70523A6E7FF23E4
:2011E000104A2B7044321378013BDBB21370CAE70F4A10498B50CFE7824200D1DEE501233D
:20120000004AE6E5C0FE01009C000020FF0100002C0600200002044090000020C0FF010036
:201220002C0400202C0300202C01002018D0000010D00000001000E0F8B500250E490F4B87
:2012400001394A1C14D000221F685C689E68A018B24203D0B858A0500432F8E70200DE68BB
:20126000141AA64201D020C2FAE710330139E8E700F01EF8FFF78CFC010000007813000068
:201280000230800804D0C0460138FDD1C046C046C0467047EFF3108072B6704780F310888E
:2012A0007047C046014B18687047C046080100200E4B70B500251E000D4CE41AA410A5420C
:2012C00004D0AB00F35898470135F8E700F042F8084B00251E00084CE41AA410A54204D0CF
:2012E000AB00F35898470135F8E770BD601300006013000060130000681300000300821866
:20130000934202D019700133FAE7704702B4714649084900095C49008E4402BC7047C046CF
:20132000002310B59A4203D0CC5CC4540133F9E710BD00001A0000000014000000000000C7
:201340000000054000000640000007400000084043000000F8B5C046F8BC08BC9E4670476A
:20136000290100004D0A0000F8B5C046F8BC08BC9E467047010100008813000098000020D1
:20138000780000003806000000000000080032000200FF010002FF01000000000000000059
:2013A0000000000000000000000000000000000000000000000000005013000000000000CA
:2013C00000000000000000000000000000000000000000000000000000000000000000000D
:2013E000000000000000000000000000000000000000000000000000A80000200000000025
:2014000000300020011900005D8800005D8800000000000000000000000000000000000098
:201420000000000000000000000000000000000000000000000000000000000000000000AC
:2014400000000000000000000000000000000000000000000000000000000000000000008C
:2014600000000000000000000000000000000000000000000000000000000000000000006C
:2014800000000000000000000000000000000000000000000000000000000000000000004C
:2014A00000000000000000000000000000000000000000000000000000000000000000002C
:2014C00000000000000000000000000000000000000000000000000000000000000000000C
:2014E000900501317568006BB11100210000000000000000000000000000000000000000FA
:201500005943040000200004EB3CB4040100020000020B0000000000000000000000000018
:201520000C0214000000000000000000200217000000000000000000E80300000000000065
:201540000201020000000100010301063F070100010101000100000000000000000000002F
:201560002C910126969001265A900126000000000000000000000000000000003290013630
:2015800032D002003220030032C0030032B0040032400600000000003200320032003200D7
:2015A0003200320000000000130038023C02440248024C025002000000000000000000000C
:2015C0003C00000000000000000000000000000000000000000000000000000000000000CF
:2015E0000000000000000000000000000000000000000000000000000000000000000000EB
:20160000000000000000000000000000000000005C021400000000000000000070021700CF
:201620000000000000000000E8030000000000000201020000000100010301063F07010067
:20164000010101000100000000000000000000002C910126969001265A9001260000000044
:201660000000000000000000000000003290013632D002003220030032C0030032B004003D
:20168000324006000000000032003200320032003200320000000000130088028C029402E5
:2016A00098029C02A002000000000000000000003C00000000000000000000000000000014
:2016C00000000000000000000000000000000000000000000000000000000000000000000A
:2016E0000000000000000000000000000000000000000000000000000000000000000000EA
:20170000B404E0F6437970726573730014000000418000FFF00300900000000000000000FB
:20172000F0030000000000000101000000020000000000000001000004140A0208140A0265
:20174000320100000446010004320100041E01000C00000000000000000000001400000091
:20176000418000FFF00300900000000000000000F00300000000000001010000000200002F
:20178000000000000001000004140A0208140A02320100000446010004320100041E010024
:2017A0000C000000000000000000000000000000000000000000000000000000000000001D
:2017C000000000000000000000000000000000000000000000000000000000000000000009
:2017E0000000000000000000000000000000000000000000000000000000000000000000E9
:201800000000000000000000000000000000000000000000000000000000000000000000C8
:201820000000000000000000000000000000000000000000000000000000000000000000A8
:20184000000000000000000000000000000000000000000000000000000000000000000088
:20186000000000000000000000000000000000000000000000000000000000000000000068
:20188000000000000000000000000000000000000000000000000000000000000000000048
:2018A000000000000000000000000000000000000000000000000000000000000000000028
:2018C000000000000000000000000000000000000000000000000000000000000000000008
:2018E0000000000000000000000000000000000000000000000000000000000000000000E8
:2019000010B5044B83F30888034A044B1A6007F0EBFAC046003000206588EDAC3800034064
:2019200010B5064C2378002B07D1054B002B02D0044800E000BF0123237010BD30010020E5
:201940000000000024BB0000084B10B5002B03D00749084800E000BF07480368002B00D19D
:2019600010BD064B002BFBD09847F9E7000000003401002024BB00009800002000000000A8
:20198000F0B5E44AE44B95B0E44D9A4201D8012300E00223E24C2B70200009F077FE002872
:2019A00015D12300B2331A782300B3331B781B021343E318002B0AD0D1235B00E25CA42344
:2019C000FF33E35C1B021343E418002C0AD12B78012B01D1D34801E0FF20400009F046FEE7
:2019E00006F030FF0521032440200422CE4BDC61186259625A633D32DA629C63D863196445
:201A00009A64CA4B323A1B689343D9B2C84B1B681B091A400B001343113BC64ADBB2137082
:201A20000792002B09D0C44BC44A2038D1580143D150C349CA580243CA5000230C25FF2402
:201A4000C0492A005A4301338A18947208001F2BF7D1BD4A002311000C25FF2413702A0084
:201A60005A4382187F32FF32013314701F2BF6D10024B64B4C701C70802301218020B44DB1
:201A80009B002B60B34AB44B00069A63DA6C0A43DA64DA6A0243DA625964B04AB049B148E2
:201AA0001160B149B14A0C508C50B14CB14A8C50DC6B0695A4B2DA6B92B29442FBD0A64A62
:201AC000D46B05220A508022A5B252020E581642FCD0DA6B93B29D4202D9802252021343DF
:201AE0000025A54A1B1B13800D5062B610270124079B3A005E1C2900300009F077FE2900F2
:201B000008229E4809F072FE9D4B38221C70079B02215D619D61019604269A4B029700932B
:201B20002000F02306F0ECFB974D20002E6006F0A7FE20006E6006F0AFFE0722934D944EEC
:201B40002B6805209343053A13432B603368914FA343DBB22343336006F030FE884A3B6857
:201B6000089240220592234213D02B68393A9343043A13432B6033680520A343DBB23360C9
:201B800006F01CFE42223B680592234201D10823059307222B68804F93436A462B60079B5F
:201BA000127D00251A7780227C4B92021A6080227B4B52001A80089BED3A5A8091239B0022
:201BC000FB58784A9BB29B185A1E93410222D31A6A460793127F089B29001A71724B734AE7
:201BE0001D70734B73481A609022520009F0FEFD714C29000C22200009F0F8FD4D4B20266D
:201C00001D3323609123A6806C4C9B00290080222000FF5809F0EAFD1323A38023003A33B9
:201C20001E7091236A465B00127DE363089B67805A7190235B0002935E4B28000193604B7A
:201C4000059A00930121FE2306F05AFB8021564B49041A785B4B12A803339B5C5A4A9B00D7
:201C60009A5893680B4393602900082209F0BEFD2A4B079A1B78551EAD00012B15D1703BA9
:201C800052481D4309F030FDC222431E9841504BEDB21A80FE224F4BFF321A804E4B0132E1
:201CA0001A80C0004D4BEC3A16E06E234C485B421D4309F019FD1421431E9841434B444A5A
:201CC0005B681180434A1B0A1380164A424BEDB21A80424B8000ED3AFF3A1A8025706070D9
:201CE000430708D43E4B5A681202120C01321502E03592B202E0802212AD92000823184244
:201D000070D1324B5B681B021B0C01331902E0319BB26AE0E0140000FF7F0000B2000020C3
:201D200000150000FF010000FC000140E80F00F0EC0F00F04C0100206808000000000A4058
:201D400000000B4078110020111600201316002080E100E06588EDAC000003406400002071
:201D6000358F000010D00000001000E018D00000BF5D000014D0000060140020F815002026
:201D80009C000020C93E00000016002008010440000104400401044000F0FF0FB40000209D
:201DA000B000002000DFFFFF8C080020EE140020640700206C070020641400207014002046
:201DC000816B000028BB0000ACBE0000C0FE0100B8000020BA000020BC000020BE0000209F
:201DE000C0FF0100802312A99B009F4805938446E020674648C848C7380048CD48C028C9CF
:201E000028C06B4622859B8A984A63851168984B98481A600023814206D1974D5168936888
:201E200049194E424E419B1900219360516010609249934AD180D288A286FF2B00D9FF2388
:201E40001922323423708F4B8F481A808F4B904A8F491364020000232032079DDCB2A54270
:201E600038D95488042C05D90E00043C4436A4109C5503E00C00002644341E550F0016884D
:201E80004837043686199C00E6510F00D6885037042E02D9043EB61000E00026FE540F00A7
:201EA0009688543704368619E6510E0055895F005C36BD530F00168960378619E65114004D
:201EC000A234267848245C430C19A33426700133F032C2E700246F4F3B006F4EF02148338C
:201EE0007B6433003D0061430833BB63664B883D403159186622280009F00AFE2B78022BBD
:201F000002D03A00873A1370A3000593634BA2009D58634A8023002C0CD106991B020B6071
:201F20006048614908601360802306995F480B605F490CE006995B020B605E485E49086070
:201F40001360802306995B000B605C485C490860136080222B68120613432B60C023C022EF
:201F60000821DB00EB58D2005B005B08AB500832AB5864208B43AB50AB5807390B43AB5079
:201F800006F01CFCD2221C21D200AB5832205B005B08AB50AB580B43AB50D423494ADB0071
:201FA000EA50494A1033EA50484A1033EA50902210331201EA5006F001FC002C00D0A9E00E
:201FC000334B1B78002B2ED1414B424A197812788A18414909785218002A0BD13F49404B63
:201FE0000A781B78D2183F4B1B78D2183300002A00D00B0022493C4A8B603C4B1278187826
:2020000082183B4800781218002A0BD139483A4B02781B78D218394B1B78D2183300002AA0
:2020200000D00300CB600121354AAB580B43AB50AB588B40CB40AB50CF22324BEA5006F043
:2020400003FB8823DB00EB589B0506D406F0FCFA2D4A2E4BA9580B40AB5002212C4AAB5880
:202060000B43AB5060E0C0468014002000280020C4000020EFBEADDEF4CFFC3FDC050000DA
:202080009C000020600B002000150000B93E00004C010020C40E002028BB000050BE00009D
:2020A00000E100E0F5AE00007C000020E1AE00005C000020EBAE000080000020D7AE000057
:2020C000600000201636141C5F6B3D00143D000036F5FF0F37F5FF0F38F5FF0F79F0FF0F87
:2020E0007AF0FF0F7BF0FF0F43F5FF0F42F5FF0F44F5FF0F85F0FF0F86F0FF0F87F0FF0F91
:20210000DC070000240400001C060000FFFFFEFF4C040000DB4BDC49DC489A001218187884
:20212000013310608B42F7D110202B68D84903432B606B5801269C4604231B1B9E40032384
:2021400001221B1B9A401300624633431343C6226B500121D200AB580B43AB501923CD4A8F
:2021600000251374CC4B059A9E58D023CB4ADB00F250803BF258CA4B1340C022D200B350BE
:20218000B358E02212031343C022D200B350AA229200B158C34B0B40B350C12301229B00AB
:2021A000F1589143F1500021F2580243F250080008F02EFC92239B006343BB491A1D52180A
:2021C000CA50AE235B006343B849B94AD1509C235B006343B749B84A0134D1503300B74AA2
:2021E000A8331D60DA600F225A611E32FF329A62B34ADA62A122D200B158B24B0B40B350C2
:202200003200E8321368B0499BB213601368C0360B431360AD4B336001233B709D4B85370E
:20222000FF370593022C00D056E60123A84EA94CF370FF237370FE3B337101230621402097
:202240007371A6673570B570B571F57109F09EF9782006F0B3FA2900012006F0B5FA11AFBD
:2022600038702900012006F0AFFA38703B780796103B1BB2002B04DB203B01351BB2EDB2B6
:20228000F8E716260CABF61800214020357009F07DF90621412009F079F9782006F08EFAC0
:2022A00015250021012006F08FFA0CABED1828700021012006F088FA002228702B78103B6D
:2022C0001BB2002B04DB203B01321BB2D2B2F8E717250CABED18002141202A7009F056F90D
:2022E0002B78072B64D13078C0B2072860D8059B09F084FA584D4539305820041B79022BAC
:2023000001D1023352E00B22A36F04215A70093A1A7003321A71023A9A71362009F048F9F2
:2023200040216D4A13688B4300211360080008F0D7FB3DE01B79022B06D10A22A36F5A7019
:20234000073A1A715A7133E00122A36F5A7092181A712DE01A79012A2AD10921A36F5970D4
:20236000063919711CE01B79022B03D1A26F537013711DE00522A36F5A70013A0EE01B79EE
:20238000012B15D10622A36F5A70023A06E01B79012B0DD10722A36F5A70033A1A71023A5E
:2023A0009A7105E01B79012B02D10023A26F5370A36F5B78FF2B03D1484804F0FBFE32E031
:2023C000474A8021042B37D8069B8901196010237C3423700024434803685B005B08036038
:2023E000414B23201C601160210009F0CFF82100242009F0CBF82100232009F0D9F82100D0
:20240000242009F0D5F8059B1B79012B03D10021342009F0CDF80021372009F0C9F80021F8
:20242000080009F0C5F8314B85211A0089005B1808936C322E4B61E0069B0901196010235C
:202440007D34237000242B4803685B005B080360294B11201C601160210009F097F82100B9
:20246000122009F093F82100112009F0A1F82100122009F09DF82100132009F099F82100E2
:202480002120BEE702F5FF0F1FF5FF0FF82A0C002C0600009C00002050BE00000002008083
:2024A000FFFFF1CFFEFBFFFFD0020020259600009008002021770000680B00200F020000C6
:2024C0000A404101000408C002000F7E4100410044110020CC010020000304404C4200005C
:2024E00080E200E000000840880F084028BB00003C0E002000000640880F064007994878A3
:20250000110008390968814208D00899D4328A42F4D1802006F010F9642455E007990978A8
:202520000029F2D0111FC44809780078022909D100280FD119700139597001211972012113
:20254000D97307E0002805D1022903D8197059701872D873D11E0878411E06290AD800211D
:20256000B64D8400A14204D057584E1937620431F8E758721600911E097820369972117F59
:20258000481EC0B2844606280CD8880006900020AA4C069DA84204D037582518EF630430A0
:2025A000F7E7E172507F1400187360463C340628ABD8002049008842A7D00500265A9F4F98
:2025C00058357E530230F6E79D4B1B78002B01D004F010FE9620013CC001E4B209F0C8F812
:2025E000002CF1D1974B984AD021200008F0ECFE059B1B79A3425CD9012C02D8200006F0CB
:20260000BDFE0134E4B2F3E7012F54D948237B438E4DEB18A4331B782E009B0701D500F0F6
:202620005AFD09F0AFF88A4A8A4B127804000593002A01D000F070FD200009F0A7F8059B24
:202640007F331B787E4B1B78002B01D004F0D2FD814B824EDB8835689BB2059305F0FCFFA9
:202660007F4C794B6543ED18059B2D18AB4201D800F099FD356805F0EFFF6C43724BE41805
:2026800000190024744B80B2D880DA88754BD02120009A86346007F09BFA6A4B6A4AD021E7
:2026A000200008F091FE7B1CDFB26B4B1B79BB42AAD80027F9E7C22464007C435F4E341978
:2026C000230087331D78002D01D100F0EEFC193B1B78DBB2069323007A331B78012B00D142
:2026E0007DE22300C0331B68BA000793230083331B780F9323006F331B7805935A4BD258C1
:20270000230067331D780B331B78012D47D1DBB20893012B35D1AD239B00D65806231E40D6
:2027200004D09034228812AB1A8021E09C2532000599380007F08AFD6D00059A7D4312AB2F
:2027400098544A4A55193535FF352A78002A0FD0022806D169461E300918059A0978995416
:2027600006E08B3422780599380008F0DFF92E70C2235B007B43314A0221D31870331B7819
:2027800043E000223800110007F060FD12AC207000222900380007F059FD607068E00025FC
:2027A000012B38D1AD239B00D25806231A40AA4204D08E34228812AB1A8059E09A342378A7
:2027C000002B06D00599380007F040FD059A12AB9854059A12AB9B5C002B07D18533FF3366
:2027E0007B43F3189A331B78002B07D101220599380007F02BFD059A12AB9854C223002147
:202800005B007B43F6187036337812AAD1542FE00135022D2CD0EEB200223100380007F0CD
:2028200015FD12AC28550028F2D001223100380007F00CFD2855EBE7C30E00203C0E00202B
:202840008D0800204DB50000EE0200004C0100204A020020CC0100209C00002030160020E9
:2028600012FDFFFF7014002050BE0000680B002012AB1B882021DAB21B0A0A9308926B46CC
:2028800028229B181B78CA4A0C93C2235B007B4388339B186A465218127808311A716A4671
:2028A000521812785A710F9BDE1FF6B2012E0CD9089B14021C430F22211C380005F026F825
:2028C0001022211C380005F021F8C2240C9B64001D02089B7C431D43291C380005F078F88F
:2028E000B34A12AB141921008E3109880D90198021007131099109780E92002900D0FCE0F7
:20290000069A002A00D06AE1012E28D8002800D165E10F9B072B12D1C821079B89001B6A0C
:2029200038009847002800D059E1A2780699380005F0F2F8A2780121380005F0EDF83800F8
:20294000022105F07FFBC2235B007B430E9A3800D31800226E331A7005F088F83FE1220018
:2029600067321278002A68D11A78ADB205925E78002D0DD0923425801121380007F028F97C
:202980000C237B438B4AD3186A46127EDA7118E00C2213007B438749CB18D979002906D103
:2029A0000131D9713800103108F0CAFD09E01121380007F0F3F8002803D16B461B8B923415
:2029C0002380C22314225B007B43794C5242E31892331D88079B78491B6A3800984700283B
:2029E00024D00D9B002B21D0059B002B03D10C9A013A022A05D9002E18D1089B013B022B72
:202A000014D8C2235B007B43202069461A00091809788832A2189171694608300918097822
:202A2000E318D171012271331A7031E0002D00D0D5E0380005F01AF85AE01E883800311CA1
:202A400004F0C6FF050001284FD1230090331B889E4200D0C3E0C821079B069A1B6A89005A
:202A6000380005939847002814D1079B38009B6A98471221380007F0ABF8099B1D70230083
:202A8000A1331B78002B03D00B2383342370A6E008218DE30C247C43464E3419A379002B23
:202AA0000AD1079B3800A5715B6A984732221221380008F045FD92E01221380007F06EF874
:202AC000002800D08BE0079B38009B6A9847A378002B00D083E00021380006F07BFC0C2367
:202AE0007B43F6180123B37079E00D9B002B76D1380005F0C3FA222155E0059A9D5C230033
:202B000067331B78002B59D19A342378002B05D0002D3DD1099B25701D7048E3069B002BD2
:202B200036D1079B38001C6A06F0CEFD0600380006F0CAFD204B1B22984200D01422524256
:202B400031003800A047002822D10524079B38001B6A059306F0B8FD0600380006F0B4FD5A
:202B6000154B1B22984200D01422524231003800059B984700280BD1013CE4B2002CE5D1A3
:202B8000C2235B007B430E9AD31871331C700EE3C2235B007B430E9AD31868331A789542EE
:202BA0001DD009211D70380006F014FC17E0C0463C0E0020480B002088130000069B002BF2
:202BC0000DD1022D0BD16A46099B127E042138001A7006F0AFFC1521380006F0F9FFC2245E
:202BE00064007C432100D44DA8314919082006F083FD0595010007283FD82DD108F0C2FD01
:202C0000059B05001C198A342378042B20D8180008F0F4FD030303141A00C84A3800D318ED
:202C2000197BC2235B007B43059AD318997005F03DF80121380004F003FF09E00C237B431F
:202C4000BF4AD3180122DA700121380006F072FC280008F09BFD10E0002804D10131380046
:202C600005F0F0F909E0059BB44A1C198334237838009B00D3181B699847C2235B007B4349
:202C8000059AD3181A00A2321278002A00D1BDE41A00A4321168002900D1D1E01268920571
:202CA00006D584331B78052B02D1380007F060F8C22149007943059B11205918A43106F070
:202CC0001BFD0600012802D0062800D099E008F059FDAE2300215B007B439A4D079338331F
:202CE0005B1906930400009120230A00069806F0F5FA00281ED0C2235B007B438E4AD3188B
:202D00001A0067321278002A03D1200008F03EFD7CE4079901226D18290066331B783B31BC
:202D200053400B702021383513405A012B798B4313432B71AE2252007A43824B9A18130054
:202D400038331B78002B11D18533FF337B437A493B32CB18663319781378994206D1200026
:202D600008F014FD380006F0FBFE4FE492239B007B43754D86225959002352000698C0589B
:202D8000C850043307909342F8D120009224A4007C4308F0FBFC2A590C21380006F00CFBA2
:202DA000002E03D1380006F0BDFF3BE0012E2AD1C2235B007B43604AD318A2331B781A00CD
:202DC000153A062A03D8380006F0D2FF2AE01F3B042B03D8380006F0C3FE23E000255A4B70
:202DE00038001C19594B3021E418257006F0B6FB2900380006F0BCFA1921380006F00CFFB9
:202E000010E00028CED0092E0CD1C2235B007B43494AD318A2331B78242B03D00021380089
:202E200006F0A6FAC2235B007B43059A3100D318A2331B78414A9B00D3185B6C38009847EC
:202E4000C22252007A433C498A18137C0591012B01D0FFF7DBFB922382219B007B433A4C33
:202E60008900E31859180878002835D07D321278002A31D1364A98180278002A2CD1354DF8
:202E80005B191D78022D24D8002D03D10821380006F09EFE0821380006F080FE00281BD121
:202EA0009225AD007D432A00A932FF32A2182A4B0B21380006F08AFD00280DD10122244B10
:202EC0006519EB181A70234BED182B789B182B7002E00A701A700270C2235B007B43059A8E
:202EE000D318180081300178002901D1FFF78EFB1A0075321278002A01D1FFF787FB9222B8
:202F000092007A43A21894468222920062441278002A01D0FFF77AFB1E0079363578012D5A
:202F200001D1FFF773FB1D0066352D788033002D14D1057064E0C0463C0E002028BD00002B
:202F4000480B002090080020D00200200B0200000A02000009020000F14000001D78012D3C
:202F600001D1FFF753FB022932D003294BD0012901D0FFF74BFB994B63441B78002B0CD16A
:202F80008533FF337B43059A0021D3181A0082321170022281331A701AE0C2235B007B4335
:202FA000059AD2181300140079331B788134002B08D12B220321380008F0C2FA0323237053
:202FC000FFF724FB0023803223701370FFF71EFB9222012592007A43A318D533FF331D7037
:202FE0001A0008217E4B380006F0F0FC002801D0FFF70CFBC2235B007B43059AD31880337A
:203000001D70FFF703FB3578012D03D102701A70FFF7FCFA380006F0C1FD002801D0FFF7BD
:20302000F5FA922292007A436C49A3185E183178132910D9C2235B007B43059A3800D1182C
:203040000A00002381321370013A1370052106F0C1F9FFF7DBFA190001251920A418220058
:20306000D531FF3108730D700D71E5335D49FF33D5321960FF325A4B0C21380006F0A6FC61
:20308000002801D0FFF7C2FA3378059A5B193370C2235B007B43D31880331D703122032184
:2030A000380008F04DFAFFF7B1FA89342378012B01D0FFF7ABFA2570380007F089F938008A
:2030C00004F01AFE3800290004F0BAFC380006F03DFDFFF79BFA012F6ED8C2235B007B4372
:2030E000414AD3181A0087321278002A64D01C0086342278002A01D0FFF793FA1A00032173
:203100008A321170394AC8331A607D31380006F011FA012323704FE06B785B08382B0BD029
:203120003F2B0BD0324B0021187805F0C7FE0023304A1370FFF780FA002500E00125B2787D
:20314000502A25D133799B070AD5012005F098FB012005F0A1FB200008F018FB05F072FBEA
:2031600004223179244B11420BD0002D04D1196801200A431A6009E0596801200A435A60A5
:2031800029E0AA009B580120002D24D105F078FB174B0021187805F091FE0022059B7E33D4
:2031A0001A70FFF749FA124BD888FFF76AFA0421380006F0BFF912E548237B43F318A43328
:2031C00002211A001B788B431370802311780B431370FFF726FA05F05FFBD9E702020000A8
:2031E00005420000018000FF3C0E0020B53900009C0000204A02002000160020482358434C
:20320000014B1818C1867047B4010020F0B5C226760046431A4C1700A61901247579B67955
:203220002540264076062D063543072631400E07290000252740BF0639433143AA4200D1C2
:203240001D002C400F4B104D800019404359E4069A050E4B2143920D2818194096028368B8
:2032600031439B05890A9B0D89021943080104D49A4202DD890A890211430800F0BDC0464F
:203280003C0E0020FFFFFFF74C020020FF03F0FFC223F0B55B00434393B00E929B4A070037
:2032A0009B1806934B789A4A0C930B890E009B059B0D08938300D3188A681A61069B2C331C
:2032C000FF331B78DB06DB0F0D930023059307930493069B7F331093612343431193109B83
:2032E000049A1B78934200D8D3E000230193119B9B184A330F936B461B790A930A9A0C9BDB
:20330000934200D8C0E00F9B804C9D006319DA78C2237B43049992095B187C335B00E3182C
:203320009B8809939B059B0D0293019B02339B00F118C878800902D0022848D0A0E099592D
:203340000903890D0391002A02D0022A18D097E02A5903991203920D914200D090E09A5BD5
:203360002B5B029992059B05920D9B0D8B4200D20B00934200D983E06549BB005A505DE0A3
:2033800003981421133008F04DFA039B1A1A2B591B039B0D9A4273D3039B181863195B8870
:2033A0009B049B0D98426BD82B5B02999B059B0D994200D21900019A02329200925B920595
:2033C000920D91425CD85249BA00535036E0022A56D198592B5900031B03800D9B0D984241
:2033E0004ED34B889B049B0D039363195B88039A9B049B0D9A4243D82C5B029AA405A40D45
:20340000A24200D22200019B02339B009B5B9B059B0D9A4234D8FA2160433D4BF430BA001E
:20342000FF3049009D1808F0FDF9394BBA00D450039BA8612B62029BAB6014E0344BBA0006
:203440000399D0589C1821624843FA21F430FF30490008F0E7F9019BA06102339B009B5BF4
:203460009B059B0DA3602A4ABB00D3189C69079AA24205D80D9A002A39D01B6A642B36D18B
:20348000019B0133019336E7049B0133DBB2049325E7059B002B1DD1FA21069A1C4DFC329D
:2034A000D36A908D1B0380059B0D800D5843BE00AC19F43023624900FF3008F0B3F90122D4
:2034C000089BA0617351A3601100059B3800FFF79DFE0B9048237B430E490B98CA1808332C
:2034E0009060591838000E9B984713B0F0BD0A99099B0131DB0BC9B200223800FFF786FE8D
:2035000001230B9007940593BAE7C0463C0E00204C020020B40100200A4B8200D258C2237F
:203520005B005843084B1818703001780123002901D18C2100E08E218900505840091840CC
:203540007047C04650BE00003C0E002070470000002310B58CB001AA13708533FF334343BD
:203560000A490400CB1866331B78002B0BD1084B092106F02BFA002805D0064B0522FE21B2
:20358000200007F021FF0CB010BDC0463C0E0020993500005135000010B5042909D11F2399
:2035A000127913400C2B0BD1FA22064B9200FA3104E0022904D80222FE21024B07F004FF7B
:2035C00010BDC046513500004823434310B5034AD318998607F024FD10BDC046B4010020C5
:2035E0004823F0B5012743433A4A85B0D3183C331E78050002913E406AD1F0234343364AFA
:203600009B1892331A88354BD3189B7882000193334BD45808F0B6F86A46324B1279A9004B
:203620005A55314A314B0390CA50AB239B00E650293BFF3B6B432E4AD3186F3319782D4A3F
:203640002D4B002908D180265755E25804310A43E250F600294B07E0022156558026E258B1
:20366000B6000A43E250264BAB229200A3501B21280006F0ADFAC022AE23D2009B00E250FF
:203680000833E25803981643E65008F07FF8029B1C4A002B01D18C2300E08E2302209B001F
:2036A000E1581143E150E1580143E150E1588143E15090218900635813436350012D07D865
:2036C000AE235B005D43104B5D1900236B722B7305B0F0BDB401002020150000001500002E
:2036E00050BE000028160020F9AF0000181600203C0E0020261600206808000000282400E6
:2037000085040000200C20009008002070B504000D0008F037F80600002C01D0012C02D1BC
:20372000200004F015FF200007F07AFC27222621200006F061F9002D1DD0C2235B006343D4
:203740000F4AD31887331B78002B14D0200007F0FFFC482363430B4A2621D3185D600A4D0B
:20376000FA222B00200007F02FFE2B0001222721200007F029FE300008F008F870BDC0468F
:203780003C0E0020B40100205139000070B5040007F0F8FF0500200007F042FCC2235B00AF
:2037A00063430B4AD3181A0087321278002A0AD0A1331B78002B06D1002C01D0012C02D15C
:2037C000200004F0F5FE280007F0E0FF70BDC0463C0E002070B50400150006F0C1F84823EF
:2037E0006343074A0321D318002800D00421197348216143083151182000A84770BDC04629
:20380000B401002010B5012104F0DEFF044A03001078FA22D20050435843400A80B210BDDD
:20382000AC0000209022F8B51F4B8600F45892000F001E4BA15805000B40A3500A2004F0BD
:20384000BDFF002F04D18C239B00E158184A03E08E239B00E158174A0A400221E250E25821
:2038600000270A43E250E25828008A430621E250114AA3588B43A350AB23B0229B00E75091
:203880009200A1580D4B0B40A350C022AE23D2009B00E2501B2106F09BF9094B5F55094B93
:2038A0009F51094B5F55F8BD50BE0000DFF3DFFFDFFBDFFFDFF7DFFF68080000FFF9FFFFCB
:2038C000281600201816002026160020F7B54A430C0007006421100008F02EF82018C343A3
:2038E000DB171840174B4000197808F025F8FA2180B20002C90007F095FF0400032803D988
:20390000FE2802D9FE2400E00424D0250E4BBA00D65807F037FFED007359019000930B4BE6
:203920000A201C43745104F049FF38000099745906F0ACFA019807F029FF0120E40BA04318
:20394000FEBDC046AC00002050BE00000002020070B504000D00262902D0272907D021E049
:20396000272106F035F9200007F05AFB1AE000220D49FFF7ABFF00280ED12621200006F0F9
:2039800027F9200007F04CFB48236343074A2000D3185B68984705E0054B012229002000F9
:2039A00007F012FD70BDC04688130000B401002051390000C82110B5002289000400FFF781
:2039C00085FF00280BD10E4BA200D158C022D20088580C4B03408B50FA22520009E0482370
:2039E00008216343084AD3183C331A780A431A706422064B2E21200007F0E6FC10BDC046F1
:203A000050BE0000FFFF0FFFB4010020113A0000C82110B5002289000400FFF757FF00289B
:203A200032D14823082163431B4AD3183C331A780A400ED01A788A431A70184BA200D158B9
:203A4000C022D2008858164B03408B50FA2252001BE07F21187801401970012C06D8C22300
:203A60005B0063430F49CB18A1331A700021200006F07CFC0121200006F078FC012C09D843
:203A8000200005F07BFC05E06422074B2E21200007F09AFC10BDC046B401002050BE00002B
:203AA000FFFF0FFF3C0E0020113A000070B501280DD84B1E99410823054A8400A558C9000B
:203AC0002B408B4203D0A358594004F0F1FE70BDF8150020F8B50400481E0E00242800D9C0
:203AE000E9E107F095FE6A004E006A00C800C800E801E801E801E8016A005800E801E80188
:203B0000D300E801E801E8015A00E801E8015A00F600E8011A011F016A002500E801E80116
:203B2000E801E801E801E801E801320029012901C84B5B78042B03D81121200006F0D0FF6B
:203B400048235C43C44B1C199DE0C24D6B78042B08D8C2235B006343C04AD31867331B7891
:203B6000012B03D10221200004F074FC6B780B2B00D0A0E13D335C43B74B1C194434012352
:203B8000D8E048235C43B44B1C19220000233E3213703934CEE0012200E00022C2235B0077
:203BA0006343AE49CB1876331B780121002B06D0310015394B42594101E000210A00A84884
:203BC000A300C31800201861F0236343A548A34DC3182833D87FC2235B006343EB18D87179
:203BE000002A01D0022101E0002902D1200004F031FC032E01D01A2E1ED148226243964B60
:203C00009A183C321278190052B2002A08DB012C06D8C222002352006243AA18A1321370AF
:203C200048236343CB1801213C331A7820008A431A700021FFF73AFF122E11D14823634373
:203C4000854AD3183C331B785BB2002B08DB012C06D8C2235B005C4300232D19A1352B70C9
:203C60007C4B5B780B2B00D025E17F4AB43311680B4013601FE148235C43774B01221C1993
:203C8000230039331A703E34002353E01378032B00D010E16F4B5B78042B00D90BE1C22363
:203CA0005B0063436D4AD31866331B88012B00D001E16B4AA300D318D97C4B0704D40B0773
:203CC00002D58906C90F00D00221200004F0C2FBF1E048236343604AD31800223A331A7052
:203CE000C2235B0063435D4AD3181A0066321278002A00D0DFE0574A51780A220B2905D1B7
:203D00006A331B785432002B00D1503A92B2574BFE21200007F058FBCDE001212000FFF713
:203D2000C5FEC8E0482301225C434B4B1C193C34237813432370BEE0C2235B006343474F12
:203D40002000FE18330070331978FFF76BFD330072331B78002B15D0330067331D78012D5D
:203D600010D1197A200006F01FFB9C235B0063433F4A4049D3183533FF331D70200007F0A4
:203D8000EFF903E000212000FFF7C0FC48227D216243314B9A183C3212788A431900002A82
:203DA00000D088E0012C06D8C2235B006343FB18A13301321A702A4DE6002B0028339B199F
:203DC0001A792D4B9B191B79934224D9012C09D892239B006343294AD318802292009B1875
:203DE00000221A702A002832921913790133DBB21371012C29D8C2235B006343FB189C3321
:203E00001A78002A3CD113000521200005F00EFC00281AD034E0C22252006243BA1813009B
:203E200072331B78002B03D067321378002B07D148236343CB1802213C331A780A431A7036
:203E4000012C02D8200005F081FE2835AE19337931E0C04644110020B40100203C0E00202C
:203E60004C020020001500000003044051350000680B00204D35000004BE0000D002002029
:203E8000C2235B006343FB181A0087321278002ADBD01F0086373A78002AD6D1190004205B
:203EA000C8338A3108701A608021200005F042FB01233B70C9E7F8BD4B1E994110B52431D6
:203EC0000022FFF707FE10BDF0B5050087B0012876D154480378029001930199524B5D5482
:203EE00052490B7803915B08382B03D03F2B4ED1009501E000230093032A54D8100007F062
:203F00007DFC555502024A4D00232C00494F4A4E38341900102220003B60336007F066FC06
:203F2000039B5B78502B02D05F2B11D02FE00423009A2370414B9000C2586270C258120AB7
:203F4000A270C258C358120C1B0EE270237124E004232370009B3A4A99008B5863708B58DE
:203F60001B0AA3708B588A581B0CDBB2120EE3702271002B06D0334B19222F21009807F0F1
:203F800023FA0AE02F21009805F022FE05E00198002104F093FF002042E02B0048353833A3
:203FA0003B60356002E00122274B1A70264B1978C9B2002931D1029B187804F07FFF2CE07D
:203FC00000281DD11B4C21680B1E28D01A4B1A680300914223D2521A082A01D9082201E085
:203FE000002A1CD004ABDD1D0E4BD2B218782B0004F092FD22682B78D318236001230EE03A
:204000000020022D0CD10A4B0A4A190038311160094A48331360013002E0012000E018006B
:2040200007B0F0BD9C000020081600204D0100204C0200206001002064010020001600200A
:20404000F81500204D4000004A02002010B50B4B5B78013B012B02D8042203210AE0C223F1
:204060005B004343064AD3186F331B78002BF3D00322042106F0E8FC10BDC0464411002095
:204080003C0E002048234343064A10B5D31800223F331A70904201D0012801D104F070FAAB
:2040A00010BDC046B401002070B5142444430E4AA15013191D7A01232B40FD255B002940F3
:2040C00019437F231940094BA1541B5C002B04D1CBB2802149420B43A35414234343D158F5
:2040E00004F0E6FB012070BD4C1100207411002070B50E00957808216E22040007F020FA6D
:20410000042E2AD1EB1E1D4E012B01D9102D0FD10821200005F05CFD922382229B006343AA
:204120009200F318991800220A7015495B181A70922300229B006343F618124BF618327007
:20414000042D1AD1863B63430F492000CB1881331A70052105F03EF90FE0032E04D10821D3
:20416000200005F035FD08E092239B005C43034B1C19044BE4180023237070BDD00200207E
:20418000090200000A0200003C0E002092239B004343174A10B5D3188322920099180022AD
:2041A00004240A70134959180A70134959180C70124959180A80124959180A708521890002
:2041C00059180A608421890059180A808621890059180A708721890059180A608822920078
:2041E0009B18012252421A80252105F015FD10BDD00200200D0200000E020000120200007C
:204200000F020000F0B5C22464004443454B0F001C19210081310E788BB005000193022EE6
:2042200010D17B1E012B08D9002F08D1823423780133DBB22370052B67D9032665E0042F39
:2042400063D1FAE7032E60D1042F4ED13F21137A8B43402B49D1110005F00CF9002843D00F
:20426000230067331B78012B3ED123007E331E780023B200934207D019000D31FF31605889
:2042800003A958500433F5E7280005F093FAC2235B006B43019AD318FC33039A1B695340B6
:2042A0009B029B0A0022002B0FD10122B2420CD203A8C018191D1133FF334068E3589842AE
:2042C0000ED10132D2B20B00F0E7B24208D1C2235B006B430199CB187E331B78934203D042
:2042E0001221280005F098FC002692239B006B430D4AD3180D4A9B181B78132B05D9032F89
:2043000003D00321280005F063FCC2235B005D43019B00225D192B00813580331A702E705A
:204320000BB0F0BD3C0E0020D002002002020000F0B5040087B0002105F01AF80921200063
:2043400005F046FC80212000490005F007F9C22324225B006343C34E0593F3180393A233DC
:204360001A70922300219B006343BF4DBF4A0493EB189B181970200004F0EAFF011E00D1C4
:20438000C6E0039B67331F78059B9A5D049B5B599B78981E0E2800D95DE107F039FAA000DE
:2043A00050015301530150010F005700B000B000B00050015C015C015C01530192230121AA
:2043C0009B006343ED18A94BEB181970002F38D1022A00D03FE1200005F0ECF9C2235B0089
:2043E0006343F2187E321178832201209200AA1817709F4AF318AA18107001209D4A0D33B5
:20440000AA1810709C4AFF33AA1817809B4AAA18117085229200AA18136084239B00EB180E
:204420001F8086239B00EB181F7087239B00EB181F6088239B00ED1801235B422B80252143
:20444000BDE01221012F00D005E1B8E092239B006343ED18854BED1801232B70002F02D07E
:20446000022A00D0F7E0200005F064F9C22252006243B3187F331D7892239B0063437A4951
:204480000127CB1883218900581800210170784829321818077077480337181807707648C2
:2044A000FF32181801807548B218181805708520800018180260842292009A181180862214
:2044C00092009A181170872292009A181160882292009B18012252421A8025316FE092231F
:2044E0009B006343ED18614BEA1801231370002F00D0B0E0624A1721AD182B705FE092225B
:2045000092006243AD185F4A1C21AD182B7056E0049B01225F595C4B00930300380004F040
:20452000DDFE002825D0039BB878673301381A780E2800D98FE007F061F9080C13828E8EBC
:204540008E8E8E8E8E8E8E8E46000C21002A36D075E0012A73D17B781421012B7BD12EE0D6
:20456000C2235B006343F11808007530007801280AD00921200005F011FB00286FD104214C
:20458000200004F0FFFF6AE0733109789142F0D1002A03D0F3184D33FF3302E05133FF33B4
:2045A000F318DA7870231340102BE2D10F22FB7A08219343802B02D0502BDAD10921200038
:2045C00005F02AFB3EE03A78002AD2D1922304209B00634326490393EB18591808702649AA
:2045E000200059180A80832292009B188021062209011A7004F0B2FF039B24221133FF335A
:20460000ED183900280007F083FAC2235B006343F6183300C0331B681C4A1B6D29002000EC
:20462000984714220921200004F050FE80212000490004F093FF2523A23633700FE0200077
:2046400005F04EFBC2235B006343F618A2363378242B04D18DE72000FFF798FDF2E707B0D2
:20466000F0BDC0463C0E0020D00200200B0200000D0200000E020000120200000F020000DA
:204680000602000046020000FFFF0000D5950000AE235B004343F7B5204D1F00EB181A005B
:2046A0004832FF32019111780400012934D14933FF331E78002303311370052205F09CF932
:2046C000032E08D8032307217343DB19EB181A7901320A401A71AE2252006243AB184E3328
:2046E000FF331E700E4BA100C9589C235B0063430C48C31800202D33FF331870A120C00035
:204700000E58094B33400B50A0230848DB00C850AB58019920009847F7BDC04690080020FD
:2047200050BE0000680B0020770FEBFF88F01400C2235B00434310B50B4AD318A4331A68B8
:204740000A4B1A4204D01021FFF7A2FF012009E0AE235B005843064B1818FC30806D431E40
:204760009841C0B210BDC0463C0E002043C0000090080020AE2252004243584BF0B59A1855
:2047800011004931FF31097885B00191110003254732FF32040050311078FF3109780295DE
:2047A000012802D10020107002900022019890420CD1C22040006043494A10180200673246
:2047C000127866301502027852012A430320019D40276843AE256D006543401918180679A5
:2047E0005B1908037602064318004F30FF3000783843064316438A000392B4460022374864
:20480000039E964206D01E69B758AE18861977610432F5E7AE2663467600664385196B635C
:20482000304BA200D2589C235B0063432E4F2800FB181F001430FC37786118002930FF30AA
:204840000170190000202B31FF31087001990126880026492C3340581100C8310860E02188
:20486000604609010140019831430130000401431000AC3001606146D1606A46127AFF332E
:2048800052B21A7006F07EFF2B004833FF3307001E702000FFF74CFF002819D12B00463393
:2048A000FF331B78013BB34204D94E35FF352B78062B0AD1019B013B012B06D80C4B022262
:2048C0000421200006F080FD02E0200006F000F8380006F05BFF05B0F0BDC0469008002088
:2048E0003C0E002050BE0000680B002014BE0000B176000092239B00F0B51A0004008327F7
:204900006243BA48BA4DBB4E87B08218BF0055199619D2196F461278023903923F7B02AAD3
:20492000D7732D78367807000C2900D95CE1080006F06EFF0D004C0080008C0094005A01C9
:20494000DD005A015A011E015A015A014401012D0AD0002D02D0032D13D045E1320003999C
:20496000200003F061FC3FE185226343FD18A24B9200EB18AD182A681B7803990092320079
:2049800018E1012C00D92FE1AE235B0063439B4AD3181D004835FF352A78012A00D123E1F6
:2049A00006264933FF331E7006F0ECFE012307002B702000FFF7BCFE002803D131002000CC
:2049C00005F03AFF380006F0E1FE0DE1032D03D11421200004F0FEFC02ABDB7B013B012BFC
:2049E0000BD8002D09D10D2E07D10F2302AA9B181A001321200004F0DFFC0321200004F0B4
:204A0000B7FC92239B0063437D4AFB189B181A88002A04D00921200004F058FCE4E0C22385
:204A20005B0063437749CB181900C43385310A701A60B0E06343744AFB189B181B780021AA
:204A4000012B07D1200005F04BF9CDE0039B002BF8D00121200004F08BFC9CE06343882133
:204A60008622FD18FE58872389006918098892009B00AA181278EB1800911B680399300082
:204A800004F02CFC021E07D1009003995F4B300004F024FC011E1ED0C2235B006343594A52
:204AA000D3181A0067321278002A07D184331B78042B01D0012B01D10C2100E02421200012
:204AC00005F0AAF892239B0063430421FA58200004F0C4FB88E0200004F04AFC4A4BED18A3
:204AE0002B78022BAED02000FFF722FC7CE00221200004F03DFC012D02D111210F2E00D028
:204B00001021200004F066FC02ABDB7B013B012B41D8002D3FD10D2E3DD192238322032166
:204B20009B0063439200FB189A181570304A9A181170304A22319A181570314A9A181580E5
:204B40002D4A9A181570852292009A181560842292009A181580862292009A1815708722AE
:204B600092009A181560882292009B181D8013E00921200005F02CF880212000490004F09C
:204B8000EDFC922292006243BB181900A631FF310978002904D02421200005F03DF823E03E
:204BA000A533FF331B78002BF5D08932FF32BA1800920F22200003F009FB15E00921200091
:204BC00005F006F880212000490004F0C7FCC2235B0063430B4A8021D3182422A2331A70B5
:204BE000C901200004F0CEFC07B0F0BDD00200200D0200000E0200000F02000090080020CF
:204C0000120200003C0E00200B02000010000100030010B50220012B0ED803220020514323
:204C20005A32FF325343054CC918E31846336118FF3388710871187010BDC046900800204B
:204C4000F8B50400062902D0092903D077E1FFF76FFB74E1C2235B001A004243B84EB218E1
:204C6000110084321078CC310D680C2800D966E106F0CEFD0D0020008B0055002000A00091
:204C8000A400A800D6000C01150122012D012000122104F0C1FF2000032104F069FBC223F6
:204CA0005B005C433619320000238532C4361370336044E1922302219B006343A14A07253A
:204CC000D318A14A9A181170832292009818002202709E48181802709D48181805709D4859
:204CE0001435181805809C48181802708520800018180260842080001818028086220120DA
:204D000092009A181070872292009A181160882292009B18012252421A8023310CE192233B
:204D200002219B006343874A0820D318864A9A18117083229200991800220A708349591867
:204D40000A708349591808708249133059180880814959180A708521890059180A608421B9
:204D6000890059180A808622012192009A181170872292009A180F311160882292009B1893
:204D8000012252421A801531D6E06343F61867363278012A09D192239B0063436949CB183B
:204DA0006E495B181A70F33938E00121200004F0DFFAC4E0200004F0DBFFC0E0200004F0A6
:204DC0008FFFBCE092239B0063435E4A0320D31883229200991800220A705C4959180870EB
:204DE0005B4959180A705B4959180A805A4959180A708521890059180A608421890059184E
:204E00000A808621890059180A708721890059180A60882189005B181A80FC39FF398BE0CA
:204E200029782000FFF7F4FE92239B006343454A2978D318832292009A181170434A0D2094
:204E4000991800220A7042495918087041490E3059180880404959180A70852189005918BC
:204E60000A608421890059180A808621890059180A708722082192009A18116088229200C1
:204E80009B18012252421A801D3155E092239B0063432C4AD318324A9B18092214E0634340
:204EA000F35C022B81D192239B006343254AD3182B4A9B180A2207E092239B006343214A38
:204EC000D318274A9B180B221A701D2134E092239B0063431B4A2978D318832292009A18EA
:204EE00028792E7B1170194A0F27991801220A701749103559180F70164959180E801649AE
:204F0000591808708521890059180D60842100208900591808808621890059180A70872290
:204F2000802192009A1809021160882292009B180122252152421A80200004F06DFEF8BD56
:204F40003C0E0020D00200200B0200000D0200000E020000120200000F020000070200009B
:204F600046020000F0B50223012837D81C4B8200D1581C4B0E00BC3635681B4C1D40C22328
:204F80005B004343E3181F00822275373F78D2012A43002F05D167331B78012B08D18622F0
:204FA00004E066331B78012B02D18E22D2012A4332604122C4310B681B0C1B041343443283
:204FC000FF32504320180200673212786630140202785201224313430B6000231800F0BD29
:204FE00050BE0000FF80FFFF3C0E002002290AD1012808D8AE235B005843034B1818012344
:205000005130FF30037070479008002010B50400881E0B2846D806F0F1FB064545452B4517
:205020002F454545454296220921200004F04EF9C2235B0063431C4AD3181A7C012A31D1B4
:205040001A0079321278002A2CD192229200624316498A18164952181278132A22D8112231
:20506000A233FF391A70FF39200004F08BFA19E0200004F035FE15E092239B0063430B4A48
:20508000D3180C4A9B181B78312B04D81221200004F0C2FD06E0200004F0AAF902E02000AC
:2050A00004F066FE10BDC0463C0E0020D0020020020200000102000010B5022905D1C822B2
:2050C0000731920004F002F904E0082902D1043904F0A2FD10BD0000F7B50500062909D0D9
:2050E00008292ED002292ED1C8220731520004F0EDF828E0C2235B004343134A9224D3183E
:20510000190000260122A4007631773344430A701E700E4B0E4F009331000223E05904F0DD
:20512000DDF8B04209D080233C199B00E41826700C21280004F070FD05E0280004F0D0FD26
:2051400001E004F015FEF7BD3C0E0020FFFF0000D002002037B50400881E0B2800D9A1E036
:2051600006F04CFB061B415978A08AA0A0A0A092200004F01FFBC2235B0063431A004A49C2
:2051800020008A18CB180D32FF327E331B7800210092012203F01AF884E00221200004F040
:2051A00017FD80212000890104F0D8F9C2235B0063433D4A2000D318012276331A70922348
:2051C0009B006343394AD31880229200991800220A7037495B18F9391A70FF391B3204F077
:2051E00075F8282132E0C2235B0063432E4AD31875331B78012B0ED192239B0063432B4AED
:205200002421D3182B4A9B181B78012B30D1200004F066FD46E0C2235B006343224AD3189C
:2052200076331B78002BF2D19225AD0065431F4B13215D191E4B2000ED182B7801332B7024
:2052400004F0EAFC2B78062B2CD12721200004F0C1F827E09220012280006043134D00929D
:2052600004230021405904F039F80028CFD01421200004F0D1FC15E02000102104F0AAF86F
:20528000200004F075FD0DE0C2235B006343064AD31876331B78002B04D1802120008901F3
:2052A00004F070F937BDC0463C0E0020D0020020010200000B02000037B50400881E0A2863
:2052C00049D806F09BFA061E2C2C2448484848482C0092229200130063431F491F48CD183B
:2052E0002A0001237D32FF3210601900009220000F2202F06BFF1A4BED182B7801332B70DC
:2053000029E019220121200003F0E0FF23E092239B006343104A2000995804F0ABF8012118
:20532000200004F055FC80212000490104F016F90921200004F032FC002808D0C2235B004E
:205340005C43084B1C191323A234237003E01221200004F061FC37BDD0020020018000FF9A
:20536000020200003C0E002037B50400881E062828D806F043FA040E14141627140001211B
:205380002000FFF745FC0D220121200002F04CFF18E01B220921200003F098FF12E01221DA
:2053A0000DE09220002280006043074D009201210823405903F092FF414241411131200052
:2053C00004F02AFC37BDC046D002002070B50400062908D0082948D002294CD11B22073191
:2053E00003F074FF47E0244903F0B2FF002838D092239B006343214A99581500897803294B
:2054000004D11431200004F007FC34E08B21D3188F2289005918096892009A181160C222FB
:205420005200624316498A1890217532127889005B18012A03D10B321A70242102E0102277
:205440000B211A70200004F0E7FB92228F23920062439B00AA18D2181621200003F0ACFFC7
:2054600009E0200004F03CFC05E0102103F0B2FF200004F07DFC70BD18100000D002002069
:205480003C0E002037B50400881E08285CD806F0B5F9052B2230305B5B5B3400200004F0F9
:2054A00049F992239B0063431D00284A5935FF35AD1899582800242206F02AFBC2235B00E4
:2054C0006343234A2900D318C0331B68214ADB6B2000984738E0C2235B0063431C4AD31830
:2054E000A4331B685B0604D50D21200004F094FB2AE0200004F0F4FB26E092218900614354
:2055000012488B2243181D008135FF352D6892009A1815608C2292009D18083A9B18DB7996
:2055200041185B065A0F922363439B1857339B001B5802222B608B239B00C9180091012314
:205540000021200002F042FE37BDC046D00200203C0E0020FD950000C2235B0043432A4AB6
:2055600070B5D3181A0000246E321470922292004243264901268A182549050051180C705E
:20558000244951180C70190081310E7001390C70812189005218FC3314809C64B04219D87F
:2055A0002100FFF735FB31002800FFF731FB02212800FFF72DFBAE235B006B43164AD3189B
:2055C0001A00FC32946548335C321470FF33083A14701C702800FFF7C5FC104BAA00D2586B
:2055E0009C235B005D430E4B0E495D1900232E35FF352B70A023DB00D150A121C900535881
:2056000009480343535070BD3C0E0020D002002001020000020200009008002050BE0000FA
:20562000680B00207F06090400060104F8B5C2235B004343194A0400D3181E7C79331D789A
:2056400092239B004343164AEDB2D318154A9B181F78022910D1FFF77FFF3722002F04D104
:20566000002E07D0002D05D132220921200003F02DFE11E012210CE008290DD10931002FDE
:2056800007D0002201311A70964202D0954200D10239200004F0C0FAF8BDC0463C0E0020D5
:2056A000D00200200302000010B50400022905D1FFF752FF0B21200004F0AEFA10BD00002D
:2056C00070B5040002292FD1C2235B004343234AD31801227A331A70214B8200D358214A7A
:2056E0001900BC31086802400A60A121C90058581D4A02405A50A0221C49D2009950802276
:20570000C4331D001B68520313432B60322003F055F880222B68520213432B60372209213D
:20572000200003F0D3FD17E0082915D10C4B8200D3580F4AC43319680A401A6019680D4A07
:205740000A401A60C2235B004343044AD31800227A331A7004F0E6FA70BDC0463C0E0020BC
:2057600050BE0000FF80FFFFFFF9FEFB00060104FFFFFEFFFFFFEFFF10B5040002291CD1DA
:20578000C2235B0043430E4A0E49D3181422C0331B6852421B6A9847002803D0200004F0F6
:2057A00063FA0CE00921200004F0F8F9002806D00421200003F0E6FE01E00829EED010BDBA
:2057C0003C0E002088130000C2235B0043431E4A10B5D3181A00C0320400126802291BD145
:2057E000C821136A890000229847002809D12000072104F011FA154A0921200003F066FD71
:2058000021E00921200004F0C9F900281BD00421200003F0B7FE16E0082914D119007631BB
:20582000097801290CD19B7C012B09D1136A0849002298470028DAD0200004F091F902E0A2
:20584000200004F011FA10BD3C0E002014050000B80B000070B50400072922D0082923D0A7
:20586000022923D1C2235B004343114AD3181A00C0321568483A1278012A03D17033197835
:205880006B69984720006B680A4998472000EB680949984714220921FF32200003F016FDD5
:2058A00004E004F0E1F901E004F05AF970BDC0463C0E002088130000C995000070B505004E
:2058C000022925D1C22464004443124B1C192200012326009A3213702C3A1370C03603F0B7
:2058E00099FC336800211B6928006A3498472178C9B2002903D1336828009B6B984706214E
:20590000280004F089F9044A0921280003F0DEFC70BDC0463C0E0020EE02000010B5040026
:20592000072910D0082912D002292ED103F072FC92239B006343154AD318154A9B18012244
:205940001A701A321AE0032104F066F91DE092239B0043430D4AD3180D4A9B181A78002A25
:2059600011D000221A70C2235B004343094A0A49D318C0331B681B699847084A09212000CE
:2059800003F0A4FC01E004F0EBF810BDD0020020450200003C0E0020C9950000710200007B
:2059A000F7B5C22676004643634D0400AE19330067331F783A331B78DBB20193022905D054
:2059C00000D2B7E0052900D891E0B3E05B4E5C49335C002B09D192228023920042439B0069
:2059E0008A18D218137801331370922380229B0063439200CB189B181A78032A16D9032246
:205A00001A70C2235B006343ED1876352B782000012B04D1012F02D104F0A2F801E003F03D
:205A2000E7FC0121200003F0A3FC83E0335D002B02D0002333550BE0200003F07FFB002F6D
:205A400006D1C2235B006343ED1801236E352B70012C02D90121315569E005F093FE05217D
:205A60000700200004F0B4F80421200004F0B0F80721200004F0ACF8324BA200D1589C2397
:205A80005B006343304AA120D31800222D33FF331A70C0000D582D4B2B40AE250B50A023A8
:205AA0006D002B486543DB00C8502A4B38005D192B0005274833FF331A7001934B3B9A65A1
:205AC00049355C331A70FF3505F060FE224B142207212F70200005F077FC0123019A3900BE
:205AE0001370200004F0A8FE002823D0B2E71221763603F06FFC3378002B06D1019B002B04
:205B000003D0200004F02CF814E00321200003F02FFCC2235B006343ED182A000023853235
:205B2000C43513702B600221012F00D00521200004F072F8F7BDC0463C0E002060070020EC
:205B4000D002002050BE0000680B0020770FEBFF88F0140090080020B1760000F8B5C22444
:205B6000922664004443254BB6001C1923004643234AAE339619234A0127B2181288023B48
:205B80005A808A229200B218128805009A8089229200B21812881A80373B1F70FFF7E2F95D
:205BA0009023220067349B002478F618FC323770116D13480833002C00D1516D8F226B432D
:205BC0009200C3189A1811604A0104D5902292009B1803221A7092228F2392006A439B002B
:205BE0008218D2182800162103F0E6FB280003F04BFA2800242104F00FF8F8BD3C0E002007
:205C0000D002002026020000F0B5C2256D004543724B04005D192B00C0331E6892239B00BE
:205C200043438C206E4A8000D7183818006885B003908C2080001818801802684088120350
:205C4000920D80040192820D02928B229200B81802680092062900D180E0082900D1A5E079
:205C6000022900D0B8E0FA2207315200200003F02DFB5C4BFF183B78012B02D100233B7072
:205C8000AAE02B0075331B780027012B01D1AE352F8892239B001A00624351498A1852496F
:205CA000521811783F2291430D3A002903D101994A43100003E00298019950434A43634364
:205CC0004749CB1849495B181B781B0702D5009B1D0301E0009B9D05AB0D019383B20293D1
:205CE00092233F499B008C466343414963448C466D469C4461462D890D808A2189008C46CE
:205D00009C4461460A806A469588892292009B181D80B84207D902992000F36A984729001E
:205D20002000336B9847C2235B001A0062432B498A18100075300078012804D1FC32526D99
:205D40000098824248D06343CB186A331978C9B2002941D1B36B200098473DE040212000A7
:205D600003F0F6FA002834D02B00009AFC335A650399019A1F48920201400A4302990805F9
:205D80001D490A40104398652000FFF7E7FE2B00AE3319882000F36AAC3598472000336B60
:205DA00029889847736B2000984715E08F229200B918009A20000A6090229200BF18084ADC
:205DC0001421D3188F22920039709A18023103F0F3FA200003F0CCFF05B0F0BD3C0E002048
:205DE000D002002006020000330200002F02000026020000FF03F0FFFFFF0FC010B5092966
:205E000002D1093103F008FF10BD10B5062908D0082909D002290AD11C22073103F056FA19
:205E200005E003F09DFE02E0202103F0F5FE10BD92239B00434310B5274A0400D318274AAD
:205E40009B181A78100009380A2844D805F0D6FC061A35434343434343431A00C2235B0013
:205E600063431F4AD318663319781E4A002901D1013100E00021197020001155FFF772F8F9
:205E80001E2125E0C2235B00634315490020CB1819007531087067331B782221012B17D1BC
:205EA0001F210A2A14D02000202103F0B5FE0E4A0921200003F00AFA0DE0C2235B00634317
:205EC000074A1B21D3187D331B78012B00D01A21200003F0A1FE10BDD00200204602000017
:205EE0003C0E00207411002071020000C2235B0043431E4A70B5D3181A00C0320400156855
:205F0000062910D008292DD002292ED101226E331A70E1220731920003F0D8F9AB6B002104
:205F20002000984721E092239B004343104AD318104A9B181B78132B01D10F4E00E00F4EFC
:205F40004021200003F004FA00280BD02B6A0022310020009847002804D12321200003F091
:205F60005BFE02E0200003F0FBFD70BD3C0E0020D002002046020000204E0000B80B0000D9
:205F800092239B00190070B58E24032541430A4AA40051180C192570084C09190C780D21D2
:205FA000132C00D10F318E244343A4001B19D21803F002FA70BDC046D0020020460200003B
:205FC000F8B50400881E062870D805F017FC044C5D5D5D615D00C22676006643344D01221C
:205FE000AE193300C0331F68593B1A70B278197A200001F091FD012C09D870363678200031
:20600000310004F0D1F93100200004F0AFF9C2235B006343ED182B006F331B780122EB1833
:20602000190090331A708E312B000A700B21833319700F3B1A702000FEF794FF642002F039
:20604000BDFB00236E352B7020007B68194998472000FB681849984714220921FF3220006F
:2060600003F034F922E02000FFF78AFF92239B006343124A0E21D318114A20009B180122A2
:206080001A7003F0C9FD11E0200003F069FD0DE00921200003F09CFD80212000490003F093
:2060A0005DFA06220021200002F0BEF8F8BDC0463C0E002088130000C9950000D002002068
:2060C0000302000010B50400062909D0082926D0022927D1E1220731520003F0F7F821E030
:2060E000402103F035F9002819D02000FFF748FF92239B0063430C4AD3180C4A9B181B78DD
:20610000132B07D17233FF336343094AD31801226A331A700A21200003F07EFD02E02000A9
:2061200003F01EFD10BDC046D0020020460200003C0E0020F8B50400881E062871D805F017
:206140005DFB04323737373B3700C2235B006343344A3549D318C0331A6892239B00634362
:20616000CB1832495B181B78132B12D1136A30490A22200098478021002806D00921200090
:2061800003F00CFD002813D00421200003F0FAF947E01369200027499847274A0921200000
:2061A00003F094F83DE02121200003F035FD38E0200003F0D5FC34E0C2256D006543194B4C
:2061C00001265D192B006E331E700921200003F0FFFC80212000490003F0C0F92B0000228D
:2061E0002F0067331A706F373978200001F06AFC3B782000EB181A0090331E708E322B0052
:2062000016700C2283331A70022374352B70FEF7A9FE642002F0D2FA06220021200002F0E8
:2062200003F8F8BD3C0E0020D00200204602000088130000C99500007102000010B50421B4
:20624000040003F095F8C2235B006343054A1221D31867331B78002B00D10739200003F0EB
:20626000DBFC10BD3C0E002070B59224A40044430C4E0421A259050002F0F0FF8E223319AE
:2062800092009B1803221A708E239B00E218921928000F2103F090F82800242103F0BCFC2E
:2062A00070BDC046D002002070B50500062908D0082926D0022927D16422073103F006F88F
:2062C00022E0402103F044F800281AD0C22464006C430E4B28001C19230070331978503391
:2062E0001B687D349B6998470023237092239B006B43074A28009B5803229A70FFF7B4FF8F
:2063000002E0280003F034FD70BDC0463C0E0020D0020020C2235B001A00424370B51D4E51
:206320000400B218C032881E1568062831D805F065FA04111A1A1A301E006343F3187033EA
:20634000197820006B6998470A220921200002F0BDFF1EE001226343F3187D331A70200089
:20636000FFF782FF15E0200003F002FD11E0EB6920009847011E05D006220021200001F00D
:2063800053FF06E0200002F0F3FF2421200003F043FC70BD3C0E002070B5040002292FD13F
:2063A000C2235B004343174A174DD3181A0066321278012A0CD1190081310A700022803309
:2063C0001A7092239B0043431049EB185B181A70200002F059FE92228E2192006243890078
:2063E000AB185B18032119708E239B00D2180B312000AA1802F0E0FF2421200003F00CFC35
:2064000070BDC0463C0E0020D002002002020000F8B592239B004343414F424AFB18040033
:206420009B18881E1D78062878D805F0E7F9041C262D31776900132D0FD1C2235B00634391
:20644000394AD31867331B78002B04D13821200003F084F801E0012159E02A000021200012
:2064600001F0E2FE5AE02000032102F081FF1B220921200002F02AFF50E00021132D46D111
:20648000200003F06DFB49E00121132D31D1F7E70821200002F05CFF00280BD092239B002D
:2064A00063432000FA58042102F0D8FE2000FFF7BFFC33E0132DE3D01C49200002F048FF42
:2064C000011E16D00F260B2D04D00A3D2E00751EAE410D369225AD00654320007A59042118
:2064E00002F0BCFE7A5931000232200002F064FF10E0200002F03CFF200003F0F1FB0DE01A
:20650000132DBDD01021200002F064FF0221200002F02EFF2421200003F07EFBF8BDC0461A
:20652000D0020020460200003C0E002010100100C2235B00F7B504001A0062430800734923
:206540009C468A18C032176892229200160066436F4D704BAE19F618023836786346082834
:2065600000D9D2E005F04AF90541626262D1D1D12300300009380A2800D9C6E005F03EF908
:2065800006080DC5C5C5C5C5C5C50F007B6C00E0BB6C614920009847B7E0FB6CF9E7634353
:2065A000CB1867331B78012B1BD17B6DF1E76243AB1819008531FF31087858495918087082
:2065C0000A2E41D0132E00D18EE0092E34D0922292006243514BAD18ED182A78012A00D0C9
:2065E0008FE0200003F0C4FB8FE062434B4BAA18D2181378032B15D00D210A2E04D00B3EE3
:20660000711E8E410F23991B922292006243434BAA182000D21802F0CFFE2421200003F0DA
:20662000FBFA72E02000FFF703FC6EE0132ED8D0200003F055FB68E001285AD10A0020009E
:206640000E2102F0B9FEC2E7032843D1C226760066432E4A96193200673212789446002AF3
:2066600038D1307C012835D132007D3212780192812292009A180092019A002A1CD1822665
:20668000009AB60012889E19002A07D1307024481818027023481B181A7002E03378002BC9
:2066A00001D00C230B70922381219B0063438900EB185B18013215E06346009A20001380AA
:2066C000FB699847002882D1703631787B69200098477CE7922381229B0063439200EB1839
:2066E0009B1800221A8072E7032802D001230B706DE792239B006343054AD318074A9B18AE
:206700001A780021200001F08FFDF7BD3C0E0020D002002046020000FD950000220200001B
:20672000090200000A020000F7B5C226760033004343504D0400EB18FC33881E9F6C0628CD
:2067400000D995E005F05AF8046E808088949000922292006243484B9A18484BD318197847
:20676000012906D1002102221970200001F05CFD7EE0C223FC215B006343EB188C46190091
:206780004531FF3109889C448905890D00916146896C48330903890DFF330191197861239B
:2067A00063434906490FC9184131890069184B68334E1D03AD0DC9883340A80218438904CB
:2067C000304B890D03400E051E438D239B00D218634616603222DE653F235543360E9E43E7
:2067E00033002E00002B01D04A431600264B3B40009F1B0100D5019F20001C22092102F003
:2068000065FD92239B005C431B4B1C198A239B00E3181D801D4BE3181E8089239B00E41868
:20682000278025E066432000AD19032102F0A0FD2A0000238532C43513702B601C220921F7
:20684000200002F043FD13E02000002102F090FD200003F045FA0BE02000002102F088FD3E
:20686000200003F085FA03E01621200003F0D4F9F7BDC0463C0E0020D0020020070200006D
:20688000FF03F0FFFFFF0FC0FFFFFF8F2602000010B50400881E042815D804F0AFFF030D4C
:2068A0001111110000212000FEF7B2F903220021200001F0B9FC06E02000FFF7BFFC02E01F
:2068C000200003F055FA10BD10B50400881E062849D804F093FF04122F3133483D002000F7
:2068E000402102F03BFE00212000FEF791F90D220021200001F098FC35E0922391209B0041
:20690000634319491A008000CB181B180020187091238A189B00D2182000132102F04CFDAD
:206920002000032102F024FD1B220921200002F0CDFC18E0002110E001210EE0082120005C
