:4000000000300020010500003D8F00003D8F0000000000000000000000000000000000000000000000000000000000000000000000000000000000000000000000000000D2
:400040000000000000000000000000000000000000000000000000000000000000000000000000000000000000000000000000000000000000000000000000000000000080
:400080000000000000000000000000000000000000000000000000000000000000000000000000000000000000000000000000000000000000000000000000000000000040
:4000C0000000000000000000000000000000000000000000000000000000000000000000DA070133626E0200B1110121000000000000000000000000000000000000000035
:400100005943000001200004613F00000000010000020B000000000000000000000000000C02180024020C0030020C003C0218000000000000000000000000000000000064
:400140000201010000000100010401020303010201010100010000000000000000000000969001252CD102002CB104002C4106000000000000000000000000005A900124B7
:400180005A30429A00000000000000000000000000000000000000005A002C01000000000000000000000000130054025802000000006002000000006402000000000000C7
:4001C0003C000000000000000000000000000000000000000000000000000000000000000000000000000000000000000000000000000000000000000000000000000000C3
:4002000000000000000000000000000000000000000000000000000000000000000000000000000000000000000000000000000000000000000000000000000000000000BE
:40024000000000000000000000000000000000000000000000000000000000000000000000000000000000000000000000000000000000000000000000000000000000007E
:40028000000000000000000000000000000000000000000000000000000000000000000000000000000000000000000000000000000000000000000000000000000000003E
:4002C00000000000000000000000000000000000000000000000000000000000000000000000000000000000000000000000000000000000000000000000000000000000FE
:40030000B404E0F643797072657373001800000041A000FFB40400AE000000000000E0F60A0000000C00000042A000FF000087800C00000043A0878001000000B404E0F68F
:40034000000000000101000000020000000000000001003C04140A0208140A0232010000041E01001800000000000000000000000000000000000000000000000000000082
:40038000000000000000000000000000000000000000000000000000000000000000000000000000000000000000000000000000000000000000000000000000000000003D
:4003C00000000000000000000000000000000000000000000000000000000000000000000000000000000000000000000000000000000000000000000000000000000000FD
:4004000000000000000000000000000000000000000000000000000000000000000000000000000000000000000000000000000000000000000000000000000000000000BC
:40044000000000000000000000000000000000000000000000000000000000000000000000000000000000000000000000000000000000000000000000000000000000007C
:40048000000000000000000000000000000000000000000000000000000000000000000000000000000000000000000000000000000000000000000000000000000000003C
:4004C00000000000000000000000000000000000000000000000000000000000000000000000000000000000000000000000000000000000000000000000000000000000FC
:40050000024A034B10B51A6009F008F96588EDAC3800034010B5064C2378002B07D1054B002B02D0044800E000BF0123237010BD38010020000000000CE90000084B10B510
:40054000002B03D00749084800E000BF07480368002B00D110BD064B002BFBD09847F9E7000000003C0100200CE9000090000020000000000C2359436933FF334343C918B3
:400580000B4B5918FF238B720A4B1A5C013AD2B21A545A78013AD2B25A705A78002A06D19B78002B03D18022034B92001A607047600C00205401002080E100E070B5074DAF
:4005C000074A2B6C91889BB2040016008B4202D0642008F0FDFC2C64B48070BD00000340540100200123F7B5384E394C7364A370F56BE388AAB29BB22D042D0C9A4202D87D
:40060000802149026D180027ED1AADB2E280314ABB18997A0192C9B2FF291AD018686A1D904202D91A68521B00E000221A60186800280ED1FF229A722278013AD2B222701B
:400640006278013AD2B262705A68002A01D05B689847BA230C375B009F42D8D16378DBB2002B1DD000231C48019AD218917AFF2903D01168814200D21068BA220C33520026
:400680009342F1D1E388F26B9BB291B21204120C8B4202D3802149025218D31A9BB200E00D4805338342A3D880B22081E388C01880B2FFF783FF0023A3706378002B03D168
:4006C0008022064B92001A60F7BDC0460000034054010020600C0020C0FF000080E100E0002382B00193009399420CD0013840180190019B994206D8019B5B1A0193009B13
:4007000001330093F5E7009802B07047002310B59200934203D0CC58C4500433F9E710BDF7B505000F0000920DF033FABA23060000245B006B4301930C236343019AE1B2B4
:400740009B18094AD3189B7ADBB2BB4205D3009A934202D82800FFF70DFF01341F2CEBD130000DF01AFAF7BD600C002030B50023FF2911D0BA220C2552005043074C2A0061
:400780005A431218A218927A914204D001331F2BF5D1002300E00123180030BD600C0020F8B504000D000DF0F4F90600FF2D11D00C22BA200023944640006043094F624666
:4007C0005A431218BA18927AD9B2954206D001331F2BF4D130000DF0E0F9F8BD2000FFF7C9FEF7E7600C0020F0B585B005000F00160002930020FF2978D0824276D0BA23C7
:400800005B006B433A4A9B1801930DF0C2F9FF231E22019903906931FF31887AFF2800D1D3B2887A87420AD13249D3B24A5D013AD2B24A554A78013AD2B24A7007E0013A4C
:4008400052B20C39501CE8D10024FF2B4AD00C225343019A274CD318029A1E815A60264A9F72128856431E60A278002A31D1234AD26B617896B200291BD0E188120489B2DF
:40088000120CB14202D3802040021218521A196892B252181A6019682289914219D21B689BB22381E0882389C01880B2FFF786FE0FE0E6801868124B984200D9180080B20C
:4008C00086192081B0B2FFF779FE80220D4B92001A60635D0133DBB2635563780133DBB26370012403980DF058F9200005B0F0BD600C002054010020D40D00200000034066
:40090000C0FF000000E100E0F0B5DA4BDA4A93B09A4230D800231A00D849D7488018807A01321B18DBB28A42F7D19F2B23D1D24BAA331A78D04BAB331B781B0213431AD059
:40094000CD4ACF49D318DB780B701300AC331A78C94BAD331B781B0213430CD0C64AD318DB788B701300B2331A78C34BB3331B781B02134300D1FEE7042100232024C14A1B
:40098000C148D361116201395162023951630431D16203399162BD4ABD491268BD4A1268425822434250FF21BB48143C22005A430133821891721F2BF8D180220021012081
:4009C0008024B64DB64B9200297069701A60B54AB54B24069363D36C0343D364D36A2343D3625064B14BB248B24C1860B24BB34819511950B248B34958501800D16B0492AB
:400A000089B2049BDB6B9BB29942FAD0A54BD96B0523035180238EB25B0202591A42FCD0049BDA6B93B29E4202D98022520213435B1A0021A44A1380015162B6A34BA44AA4
:400A4000A44813601A68824206D1A34C5A68996812195642564189190022186099605A609E499F4B3220198001219E4B19709E4B1A700DF07FF9AC7A002C24D10E2221002F
:400A80009A480DF09CFE9A4E3422210030000DF096FEFF233370F93BB370964B964E1A003832393314702100302230001C700DF086FE88235B003380904BEC721C70904B3F
:400AC0002C731C706C736C4B0333DA7F6A4B0433DB7F1B0213438B4A042B02D9043B9B1000E000231370644B87490133DA7F624B0233DB7F1B0213435F4A0433D318834A4B
:400B000013605D4B0733DA7F5B4B0833DB7F1B0213437F4A042B25D9043B9B100B70564B0533D97F544B0633DB7F1B020B4352490433CB1877490B604F4B2A3319784E4B2F
:400B40002B331B781B020B4313804B4B28331A78494B29331B781B021343474AD3186E4A136002E000230B7013800024424B6B49C2331A786A4B00203B331A70694A6A4B32
:400B800027001A60694A6A4B1A600DF009F8694B694AC2210020FFF727FE049B20009C630DF04AF800200DF0A9F85D4B1C003C342278039302231A420ED0604A03210020C3
:400BC0000DF0F2FB0F2807D002222378934323708023227813432370039B38331B78002B00D186E200200DF0ABF8554B1B78002B06D128210020FFF7B9FD002812D078E241
:400C0000037C002B03D079300378002B03D00122039B39331A70039B39331B78002B00D167E2E6E7474C26782500701E062800D95FE20DF0D7FD07001300D4000002570269
:400C400070014602002008F085FB3D4B67701A780223002A00D05CE103335AE16378002002930DF06DF8029B0600002B6CD0012B6ED04DE1FFFF010000010000F6030000D8
:400C8000F10D0020FC00014000000A40E80F00F068080000EC0F00F0600C00205401002080E100E0000003406588EDAC64000020E505000010D00000001000E018D000001C
:400CC000BF5D000014D00000D40D002000280020C4000020EFBEADDEF4CFFC3FDC05000094000020980A0020AC000020E8050020B405002054060020F8050020B00500201C
:400D0000B10500209C0A0020A40A0020A00A0020AC0A0020A80A0020B00A002010E90000340B002069D20000C802002029DA0000880B0020E1310000EE0200006DB60000A5
:400D4000B80F0020280400200299012208006DE3C54B1A780523002A00D1DAE0C34B226AC3491A60A31DDA7FC24892000DF01EFD230045331F70230046331F70636BA36098
:400D8000A36A6360737D002B1BD123002B331A7838231340282B04D1230034331B78DB060FD4330079331B78002B05D03300B9331A7818231A4204D17036317800200CF098
:400DC0000DFD04232B352A781340AB4A02D1137005339EE0012367701370023399E0002066780CF0ADFF0290012E09D0002E03D0022E00D188E08BE002223100300015E3AE
:400E0000994B1B78002B00D182E0631DDB7F002B59D1230045331B789848A21D002B09D1236A93490360D67F9548B2000DF0BEFC013612E0934B1B78059312230599D67F1B
:400E40005B1A9E4200D91E00059BB2009B00C01887490DF0ABFC059B9E198A4B1E70A36A013355D08849002003F0FEF9002827D0029B79331B78002B43D0029BBC331B789A
:400E8000002B3ED0029B7D331B78002B39D0039B3C3318780123184033D10CF095FC061E00D0BBE2029B703319780CF0FBFC002827D03300372228213000FFF795FCADE2AC
:400EC00002220100B2E2A36A013308D06F49002003F0CAF9002802D102223100A6E2238B002B0ED1029B5B7D002B0AD1029BB93318781823184004D1029B703319780CF039
:400F00006DFC6770042304E00535EB7F012BF8D005232370EDE0631DD97F5D4B1A00180034321170A21DD27F383001320270226A5A64A21CD27F574CD2092CD03F22013526
:400F4000E87F44330240EA771D00002903D1039B3A331A7804E000200CF0F2FE7C3002780323602113405A016B788B4313436B70631CDA7F464BD206D20E4033052A03D056
:400F8000062A04D0042A04D12D221A7007E01F7005E01B22F9E740331D001B232B70A31DDB7F002B09D09A000023394DE018806A5919043388649342F8D12B4B1B78012BC5
:400FC00024D1334B34331B78022B1FD1324D2B78012B2DD0002B01D0022B17D1022307AA13700F230821137300202C4B177197600DF0A0F90123002806D004DB0E38C0B26C
:401000000223012800D903232B7011E0443423780C21093B5A1E9341039A0020413213701F4B204A0DF086F9431E984140420640184B1E705DE00C4B1A78154B1000411E1C
:4010400088411900303108701749D966218A002A2ED00522002932D0144ADA6001225A7068331F702AE0C046B80F00208C0B002050040020900B002046080020AC0B002020
:40108000B00B0020A80B00203804002040040020C00A002028040020BC0A0020358D0000D18D0000F40A0020480400202C0400200522002903D16833043A1A70063222705B
:4010C0000EE0C44B627868331B7800209B009B18C14A9B009B58984720700638012808D8677006E0002008F071F90122039B3E331A70BA4E747B002C28D0B94B1B78002B56
:4011000000D14EE10124234219D0B64D2B78234215D000200CF0ACFD0223220000930221230000200CF068FE00200CF085FDAC4BAB4A1B78A34313702B78A3432B70A84B48
:401140001B78002B00D02CE173734AE0337B002B69D0A54B1D7A012D45D10621A34BA44838331A788A431A7021000E220DF027FB302221009C480DF022FB88239A4A5B00C7
:401180001380FF229B4B20001A70F93A9A705C701C71994B47331978C9B20CF0F7FD974A042120000CF0FCFD954A022120000CF00DFE8B4B1B782B4207D0924A03212000EA
:4011C0000DF0F2F8002800D175730022012110000DF0EAF8814B9F731F73DF725B7B002B21D108201CE0022D1DD101217E4B34735C717F4B1B890B4005D17D4A52890A4322
:401200007B494A8156E0102221007F480DF0D7FAFF228020774BF5721C711A70744B9D7104F0FCF8BDE06D4CE07A032800D9B8E00DF0CEFA0284A0546C4B39331B78032BDC
:4012400002D1023BA372ACE0237BA772002B24D10125674B1A892A4200D1A2E0624E3279AA43029200D09CE01B88002B00D198E00CF08FFC6B461B7A0221737133791D4090
:4012800002231D430133E372584B357138331A788A431A700CF081FC83E0534B27731B7A052B0AD00120524A1389034005D1518901435181554A136073E004F0F9F81028EC
:4012C00002D10123E372ABE700286AD00323E3722028A5D0833B1843C0B2A1E7237B002B16D0434B08265F800CF053FC7F233F4DAA791340464AAB7113683835B343DBB213
:40130000334313600CF049FC2B78B3432B702FE0A37B002B06D00221344B38331A780A431A703EE0324B9A79002A05D02E4AD279102A01D0022333E05F8019E02D4D2B7902
:40134000012B02D104F086F82BE0022B29D0C020042B02D0032B0BD1802004F05FF8FF232B70F93BAB70053B6F702F71A37316E0E77216E0237B002B13D01B4B1B7A042BF9
:4013800002D104F095F807E00121C020184A53890B4353811D4B1F6004F040F827730323E3721C4B1F600CF0F4FB1B4B05003C3318780223184041D108F0D4F900283DD0A4
:4013C000064C237B002B39D1094B1B88002B31D034E0C046C00A002068EA000054010020B0050020B1050020F805002054060020E8050020B4050020000100006001000050
:401400007C0100001150000008060020FC05002000010440C4020020340B00202B00022201210020453346351F702F7008F01AF806236EE50CF038FC00280BD1002428003D
:401440000CF0ABFB002C01D1FFF7ACFB0CF050FCFFF7A8FB6378002B08D0049B1B6CA2889BB2934202D0322007F0B2FD0CF091FB0421074B074A1B889BB21360064A1368B6
:401480000B43136030BF0CF088FB0124D7E7C04652F2FF0F0400034010ED00E010B50023FFF7A2F910BD0000022906D1002804D1A823024A01395B00D1547047CC020020E3
:4014C000704710B5022905D1C822073192000BF0A3F904E0082902D104390BF0FBF810BD70B504000CF0DAFC0200002305009A321370243A13700B2120000CF0EDFF2B0090
:4015000067331B78012B09D120000E210BF0E2F80E4A022120000BF07FF915E02B00C0331E680A492000F36A683598472B78084A5B00995A2000336B98472000736B9847A4
:401540000A2120000BF0C6F870BDC0468813000088EB000070B50D0004000CF09FFC022D1AD101237A3003700021200002F066F98022124D52032B68322013432B6007F059
:4015800027FD80222B68520213432B603722092120000BF041F910E0082D0ED1074B084A19687A300A401A601968064A0A401A600023037020000BF0B1F870BDC4000A4004
:4015C000FFFFFEFFFFFFEFFFF8B505000CF066FC94239B006B43254C2549E218521812780600002A1FD10200673212781B59002A04D1DB7ADB07DB0FDBB201E09B7ADB09E7
:4016000032009932137028000CF048FC94239B006B43174AE3189B1801221A70030099331B7898300370942392229B006B439200E718BF183A78002A17D1E35897361B79ED
:4016400028009B0933700CF029FC3B78002B0CD101333B700300943097331B7802789A4200D90370280003F023FBF8BD4808002049020000F8B505000CF010FC94238222BC
:401680009B006B432A4E9200F3189B1800221A70037C040093423BD0030066331B78012B09D0030094331B78012B31D9030067331B78012B2CD1230081331B78002B27D05E
:4016C00023007D331B78002B09D1942382229B006B439200F3189B1801221A7018E02700C0373B682800DB699847002810D1230079331B78012B05D12300B9331A78182391
:401700001A4205D03B68703421785B692800984794239B005D434C3B7619F21800231380044AB2181370044AB6183370F8BDC046480800200A02000009020000F8B50400B8
:401740000CF0ACFB94239B0063432E4E2E4AF3189A1811880200AE3211808A2292009A1811880200B0321180892292009B1802001988AC32118007000121373A1170673758
:401780003A7805008A4206D119880300C0331B6820009B68984720000AF080FF200003F087FA94239B001A00902162438900B2185218012111703978FC352A6D002900D1F1
:4017C0006A6D8F2163438900F31859180A60520104D5902292009B1803221A7094228F23920062439B00B618F218162120000CF081FE2000FFF73EFF262120000AF06AFF7A
:40180000F8BDC046480800202602000070B505000CF044FB0400372228000321FFF73EFE23000122942081331A70002380006843034A80341018034A23708018037070BD4E
:40184000480800200202000070B505000CF026FB030067331E780400012E08D18178280008F06DFF3100280001F0E8FF03E003000B22A2331A7028000E220021FEF750FF89
:4018800023000022A4331A60012377342800237015210CF021FE70BD10B504000CF0FEFA030000219C33197094239B006343084A8430D318074A9B1819700378062B02D05D
:4018C00020000AF0ABFB182120000AF003FF10BD480800200B02000070B504000D000CF0DDFA0600062D09D0082D44D0022D49D11B22092120000AF08FFF43E0224920001F
:401900000BF034F8002832D094239B0063431F4D5A599278032A04D1172120000AF0DAFE30E08B218F22EB1889005918096892009A18116090217536327889005B18012A4C
:4019400003D10B321A70262102E010220B211A7020000AF0BFFE94228F23920062439B00AD18EA18162120000CF0C4FD0AE02000FFF792FF06E0200010210CF0ADFD200041
:401980000AF0EBFE70BDC0461810000048080020F7B50C0005000CF081FA062C0BD0082C2ED0022C2FD10CF0DFF90921020028000AF032FF27E09424030001220026A400D6
:4019C00076336C431A70104B7730104F0670009331000223E0590AF027FFB0420CD02800FFF7F2FD80233C199B00E41826700C2128000AF06FFE06E02800FFF74DFF02E0FE
:401A000028000AF0AAFEF7BDFFFF000048080020F0B587B0040003910CF040FA9422030005008C20920062438D49C03380001E688B1805931B181B68043801938B181B1809
:401A40001B68884802938A239B00D318C7583F03BB0D0493039B0F00062B00D18FE0082B00D1E2E0022B00D0F7E000277E4A059B20009B181F7002F0E5FDFA220921520076
:401A800020000AF0C9FE794A059B944663441A78012A01D11F70E0E02B0075331B780397012B03D12B00AE331B88039394239B00190061436A4A6E48511809180978049F17
:401AC000090702D402998F05BF0D6343D318694A9B181B78F53AFF3A934306D1019B0D3A1B039B0D5343180019E0C02B0ED16422019B0199DB0108041B0E000E5343504348
:401B0000029A570605227F0E574308E03222019B01999B0008039B0D800D534350439AB2029294224E4992008C466243524962448C46019294446A46614612890A808A210D
:401B400089008C46019A944461460880892189005218B8B21080039A934207D003D902992000F36A9847336B322105E0AC352B889F4272D80100336B200098476DE04021D4
:401B800020000AF0F3FE002864D0049B02999A023A4B200019400B0013432A00FC325365019B9365FFF7CAFD2B00AE3319882000F36A98472B00AC3319882000336B9847D7
:401BC0005423FF33EB5C5B0703D4736B2000984703E0B36B00212000984720000CF01CFC00283AD02B78022B37D12B0094331B78012B32D994239B005C433F193B006433A9
:401C0000FF331B789B0628D56A352B78DBB2002B23D193229200BA181370194ABA181370114BFF1801233B7017E08F208B1880001B180298186090208000844614208B18DE
:401C4000634418708F238A189B00D218162120000CF050FC20000AF080FD07B0F0BDC046480800204C0800204D020000060200002F0200003302000026020000FF03F0FF02
:401C80004E02000073B50E0004000CF007F90500B01E082858D80CF09BFD0527232C2C5757573000200002F0CDFC20000CF00EFA94239B0063431E00244A5936FF36B618E6
:401CC0009958300024220CF071FD2B00FC331E66C0352B681E4ADB6B31002000984733E0A4352B685B0604D50D2120000AF0F2FC2AE02000FFF7D0FD26E09421890061430B
:401D000012488B2243181D008135FF352D6892009A1815608C2292009D18083A9B18DB7941185B065A0F942363439B1857339B001B5802222B608B239B00C9180091012355
:401D40000021200002F044FF73BDC0464808002061C60000F8B504000CF0A0F800210600200001F06BFD94239B006343244D254AEB18991800220A70234959180A70234950
:401D800059180A708221890059180A70204959180A70204959180A708121890059180A801D4959180A708D2189005B181A603300FC339A64DA65873B1A701A712A00002C12
:401DC00003D1164B5133FF331C70942533000027AD006543A4331F60114B5519EB189C36377020001F700AF0D1FD0E4B2000ED182F7002F027FC200002F018FCF8BDC046DE
:401E000048080020030200000602000007020000090200000A0200000B020000CC020020490200004D02000070B505000CF036F804002800FFF78EFF230070331978503393
:401E40001B6828009B6998472300210067331B787D316634034A012B00D000230B705355237070BDB80F002070B504000E000CF015F80500022E21D1020001232E009A325E
:401E800013702C3A13702000C036FFF7CDFF336800211B6920006A3598472978C9B2002903D1336820009B6B9847062120000AF011FC034A092120000AF0AEFC70BDC0468B
:401EC000EE020000F8B504000BF0E8FF9425030000260700AD0065439B331E70354B20005D19354BEB181E7002F0ACFB200002F09DFB3B006E331E70304B0122EB181E70C2
:401F00002F4BEB181E703B0081331A70013B1E7081239B00ED183B00FC332E809E648A23FF33FE54B4421AD12100200002F0AEFE0121200002F0AAFE0221200002F0A6FE4F
:401F4000204B1A00FC3294651A005932FF3214701A0048335132FF32FF3314701C70200002F0A6FE9A235B006343174A174DD31800222A33FF331A70A023154ADB00EA503A
:401F800020000BF08BFFE022A2239200DB00EA50943002782B00012A05D9A3218020C9006A5802436A50A121C9005A58094802435A50F8BD480800204D02000001020000BA
:401FC00002020000CC0200207004002000000A407F0609040006090410B50400022905D1FFF770FF0B2120000AF074FB10BD000010B5040002291AD10BF050FF1422C0306C
:40200000036852421B6A0B4920009847002803D02000FFF765FA0CE009212000FEF7A6FB002806D0042120000CF000F901E00829EED010BD8813000070B504000BF02EFFCC
:4020400005000021200009F0E9FF2B0000226E331A70AD7C2000012D06D10BF04DF8290020000CF08DF901E0FFF7EEFB70BD000070B504000D000BF011FF0300C0331B68C1
:40208000022D1CD1C8211B6A0022890020009847002809D1200007210AF01CFB144A092120000AF0B9FB22E009212000FEF75EFB00281CD0042120000CF0B8F817E0082D70
:4020C00015D1020076321278012A0DD1827C012A0AD11B6A00220749200098470028D9D02000FFF7A9FF02E02000FFF7F9F970BD14050000B80B000070B504000E000BF00F
:40210000CDFE0500072E22D0082E24D0022E25D103008178C03320001E6808F010FB2B0070331978200073699847002376352B70200073680A4998472000F3680949984744
:4021400014220921FF3220000AF066FB06E02000FFF7C6F902E02000FFF76EFF70BDC04688130000F9C5000070B50D0004000BF095FE072D11D0082D14D0022D2DD1200068
:40218000FFF752FE94239B006343144AD318144A9B1801221A701A3217E0032120000AF099FA1AE094239B0063430C4AD3180C4A9B181A78002A0DD00022C0301A700368EA
:4021C00008491B6920009847074A092120000AF023FB02E02000FFF72FFF70BD4808002045020000F9C5000071020000F7B504000E000BF053FE030067331F783A331B78DF
:402200000500DBB20193022E04D000D2A1E0052E7ED99EE04F4E5049335D002B09D194228023920062439B008A18D218137801331370942380229B0063439200CB189B1893
:402240001A78032A12D9032276351A702B782000012B04D1012F02D1FFF7EEFE01E0FFF7F3FA0121200009F0D9FE72E0335D002B02D00023335507E02000FFF76BFD002FBD
:4022800002D101236E352B70002C02D0012131555CE00BF07EFC052107002000FEF780FA04212000FEF77CFA07212000FEF778FAA1212A4BC9002933FF331C70284B294A77
:4022C0005858294D02405A50A0222849D2009950274B38001C702B00FC339C652B0005275933FF3349351C70FF350BF056FC214B142207212F702000FEF776FA01231C4A35
:4023000039001370200001F059FA002821D0BDE7122120000CF0E0F8019B002B0BD076352B78002B03D0032E05D0002F03D12000FFF782FE0DE00321200009F06FFE200055
:402340000AF0A2F90221012F00D0052120000AF0C1F9F7BDB4020020480800207004002000000A40770FEBFFCC02002088F01400130400203D47000010B5044B8200D3586D
:40238000002B01D00121984710BDC0461C0E002010B5024B8200D358984710BDB40A002010B50400042904D1064B195C0CF088F807E0032905D10BF0C3FC9C300278014B78
:4023C0001A5510BDB802002070B50D000121040002F014F83C2809D8F2227C200749D2008B5883433D3803438B5005E0044B012229002000FEF7F8F970BDC04600000A4018
:40240000C9230000AD22802370B5104C104D9200265CAA58DB011A40002E08D0002A04D001220C4B11001B6806E0225408E0002A04D10121074B1B68984706E00123235468
:40244000FA22054B5200FEF7CFF970BD9A00002000000A40880B002005240000F8B517000C000BF01BFD030067331B78274A012B36D00021012C01D1882149003C000025AB
:40248000D219537B127B5B02520113430B43C022FF211F4ED200B058090101408B4209D0B0581C490140B150B15832200B43B35006F08EFDAD239B00F3585A0503D5023746
:4024C000002D06D01FE0DB0405D50124002D1AD13F19FCB217E06B425D416D422C4012E0012C0ED1882464008B30017801258900535C521852785B0152021343234302241B
:40250000C5E70024F0E72000F8BDC046C4EA000000000A400FF0FFFF70B5D024124DE40029510A200E0006F053FDD22202239200AB500832AA581A4214D0002E12DBC123AF
:402540009B00EB582A595B079B0F120408D4012B08D1D32202219200AB580B43AB5001E0022BF6D070BDC04600000A40F7B505000C000092072004293AD8042A38D80BF0C2
:4025800008FB009F019027431A4E0ED10121491BC9B2280001F09EFB022006F019FD92239B00F7502033F7501EE0013CE4B20022032C02D8104BA400E258009B0021013BF8
:4025C000DBB2032B02D80D499B00595892239B00F2502033F150052006F0FAFC0121491BC9B2280001F05CFB01980BF0D6FA0020FEBDC04600000A4070E9000070E90000BB
:40260000064B02208522002900D184229200995801439950995881439950704700000A40F8B5424B05001C780BF0B3FA4D2300216B431B193E4A46339B00D31859609A23A6
:402640005B006B43D2181419FF34637DD023D421384C394ADB00E250022289006358852693436350D2239B00E2500BF096FA8021324A0906536988200B43536113698000B4
:402680005B005B081361B0229200A1582C4BB6000B40A3508022AE2392029B00E250A322D200A158274B0B40A350C022A2235203DB00E250842218219200A3588B43A350D6
:4026C0002258214B1A402250A2598A43A25189229200A1580B40A350A3591C490B420AD1A358002B07D101212800FFF789FF0122A3599343A3518426B600A359134A0D4FAC
:4027000013420BD188239B00F958002906D12800FFF776FF0122BB599343BB510C4A012013689B009B081360F8BDC046AC0000207004002000000A4000020080FC000A4055
:40274000FFFFFDFFFFFFE7FFFFFFFFFEDCFF0F00E0000A4070B514009A2250436343411888310F4849004118CD88180064210BF005FF0019C343DB171840192140000BF064
:40278000FDFEADB2000229000CF036F8032803D9FE2802D9FE2000E00420C0B270BDC04670040020F0B5204903000A5C1F4D002A04D12A1852780C20002A34D0A220602677
:4027C000A3241B4AC0001650E4001059B04310518024AE20640080001450C134FF34165914483040105114681348204010603022002B00D004320F2422409700BC400F4EB9
:402800003068A0433060C85C002805D0012494400B4E3068A043306000200A4A9C00C854EB18A0505870F0BDA4050020B802002000000A40FFFEFFFFFFFFFF9F00030240B2
:4028400000030440A8050020044B8C22002900D08E22920098588006C00F704700000A40C02210B50948D200835804001000002904D1074A13408022520303E0054A1340EF
:40288000802292031343235010BDC04600000A40FFFFBFFFFFFF7FFF10B50C000021080001F018FAC0220749D2008B580800A021002C01D1C90300E009040B4302490B407B
:4028C000835010BD00000A40FFFFFFBFC023054ADB00D058002901D1034900E003490140D150704700000A40FFFFFFFEFFFFFFFDF0B58FB00E00040017000BF021FA05000A
:40290000701E252800D97DE10BF06CFF740053007400A000A00079017C017C017C0174005E007C017C01BC007C017C01C40067007C017C016700CB007C017C01FF0074006D
:4029400026007C017C0111017C017C017C017C0139007C017C0143012020CE4900250A688243D3B203430B600022062120000BF0BDF854236343C84AD3183E3322E0002209
:402980000221200008F0D0FEC44B6F351A19297892780093914207D0092210006043C04B0021C0180BF00BFF009B2A781B199A7028E154236343B84A0025D3181A003E321C
:4029C000157039331D701EE154236343B24AD318002239331A70012300E00023009376352B780122002B03D03500153D6A426A41150001E000250095200006F0E7FC32213B
:402A00002000FDF7CDFE009B002B05D000220221200008F089FE0AE0002D08D129002A00200008F081FE29212000FDF7B9FE032E02D01A2E00D0E5E0542301216343964A4A
:402A4000D3183C331A788A431A70DBE054236343914A0121D3181A003932117000223E331A70200006F07EFE002C00D0CAE08D4B1978022900D0C5E02200200008F054FE63
:402A80002500C0E03B78032B00D057E1200007F02FFCB7E0542363437F4AD31841331D78B1E05423634394357B4A2978D3183A33012901D9012100E00021197002213B79F9
:402AC0008B43012B00D039E1774B1B5D002B07D054236343D3183E331B78002B00D02DE154236343D318190038310D780093002D00D023E14823634301201A006B4B087084
:402B0000D054009A3E3215707DE0542301216343614AD3183C331A780A431A70624B1B5D8B4200D00AE1200006F050FC6AE0FB79B978DA0921D01A205B061B0F0133584372
:402B4000FA88D205D20D824217D903AA5170002151800F310B40DB0075310B433878D3704E4B1070043393601B237739137320004F4B0BF06FFB012545E002230125994374
:402B8000092940D0002312211A0020000BF062FB39E07A78012A00D0D0E00225BB681B0E1D4003D12B002A000F2124E0B97AA0000B071B0E09090B43384994460D180021F9
:402BC0002A00A9603549002B07D065462B4204D195685B0801359560F5E70123002503AA53801A3308311373173B081853700D212B001570906020000BF09CFB03E0200041
:402C000006F0B0FD002520000BF09AF80090172E3ED00FD8032E22D0122E20D0012E00D084E00923634323491D485918C318002200930EE01A2E12D003D80221182E72D05D
:402C400074E03300243B012B36D96FE00132092A05D0009B985C8B5C8342F7D266E0542363430D4AD3183C331B785BB2002B02DB20000BF019FC032E01D01A2E56D109221D
:402C800010006043064B0021C0180BF098FD4DE0002148E000020440340B0020B8020020E80D0020DC0D0020B80F002028040020A1230000F10D0020009B20007033197870
:402CC0000AF08CFD009B72331B78002B1AD0009B67331B780193012B14D1009B20006F331978FFF7F3FD9A235B006343164A1749D3186A4631331279FF331A70200005F04F
:402D00003FF906E0200000F0F7FF0021200005F0E3F8542363430E4AD3187D223C331B7893430FD10421200008F0F6FE002D09D13A003100200002F0C7FA03E020000AF034
:402D4000FFFFF5E70FB0F0BD70040020D9B00000340B002070B50D00002106000800140000F09EFF0022964201D1124BE25C124B002D01D15A6000E09A6018201A680E4927
:402D800082431A602200022C04D10B680E3213430B600D3AC0230949DB00CC5808489206204002438220002D00D08420C0050243CA5070BD36F5FF0F00FF0A4000000A40D3
:402DC000FFFFFFF3F0B585B006000BF067F8030000906F331D7821331B8803AC2380030072331A78002A04D0314A1168062211425BD1009A673212780192012A26D1571BDF
:402E0000F9B200223000FFF729FBE0559A27002229003000FFF722FB7F007743254B6055DF193137FF373B78002B3ED0022803D16B461B79635538E0009B29008B331A78F0
:402E40003000FFF787FF00233B702EE01A780027D2B2012A19D1635D012B04D929003000FFF7FCFA6055635D012B05D8002229003000FFF7F3FA60550022009B70331B78E6
:402E8000E25412E00137022F0FD0FDB2002229003000FFF7E3FAE0550028F3D0012229003000FFF7DBFAE055ECE7208805B0F0BDA4000A407004002010B50AF0EFFF0300FA
:402EC00067331B78002B0CD11821064B68301A688A431A600278032A03D11A6808390A431A6010BD00FF0A40F8B5AE268027B025A822204CB600A751AD0063599200BB43BD
:402F00006351A1581C4B0A200B40A35006F060F8D422A7519200A158184B0B40A350C022D223C921D2039B00E25089006258144B1A406250C0225201A2516159114A0A4015
:402F40006251AC229200A1580B40A350C0228021D200A35809060B430021A350080000F0B9FEC1220821D200A35800200B43A350F8BDC04600000A40FFA3FFFFFFFF9FFF1C
:402F8000FEF7FFFFFFE7FFFFC12108200B4BC9005A5882435A50C022D20099580230490049089950995801439950985804490140F0200004014399507047C04600000A40B2
:402FC000FFFFFFBFC122082170B5C025454CD200A358ED008B430021A350635908005B005B08635100F05CFE322005F0F1FF0A228021A9206359090213433B4A6351A35834
:4030000080000B43A3502258384B39491A400A432250AA229200A058C02503400B43C021A350083AA35889030B43AC21A350314A890062506058304B6D0118436050B0208E
:40304000083165508000215829432150AD21890060580D00010206D5AF2080268000215836013143215061591E4E890106D5AF208025800031586D0129433150C921890032
:4030800062506258A82513436350C021D223D422C9039B00E1509200A358AD000B430121A350164A0A20A3580B43A3506259144B1340C0226351635952011343635105F0F6
:4030C00087FF80226359D20013436351AE2380219B00413AE150FF3AA35800200B43A35070BDC04600000A4004060000FEFBFFFF10400000842424000108000068080000AF
:40310000FFA3FFFF064B01201A68064B1A4205D1A023054ADB00D3585B0A18407047C046A4000A400720000000000A40F0B51E4B1E4C1A689A235B004343E3182533FF336A
:403140001B78002B01D100202DE0002906D11F2308241340072B03D8210001E0102400219A220B0052005043104A10180A19934218DA050006002635FF352A78FC36766908
:40318000920097591A1D0A4E920097512A78013D0132D2B26A706A782D789542D3D90133DBB2E3E70120F0BDA0000A407004002000000A4070470000022210B5064CFF32C5
:4031C000236805201343236005F002FF2268034B1340236010BDC046DC000A40FEFEFFFF10B50C4B1A6801321A601B68012B09D9094B0A4A1B680A495A600A4A13689BB27F
:403200000B431360084B094AC2210020FDF7ECFA10BDC046C4020020C40000200C3003C00400FA050CED00E0E1310000EE020000F7B500200AF032FEA44CA54B0190E2582F
:403240001F00002A00D1CFE1E3589B050CD594220020A04B5200985408211B6898478822A0239200DB00E2508023E2591A4207D0A0229649D2008B500121964AA833D154D1
:40328000954A924BA258120624D5A2222A21D2009858FF318F4AC00501D5002314E0012050549521DB6D4900DB01DB0D03339B10DBB25354535C412B01D9412353542C2189
:4032C0000023FF31535401315354C022A2235200DB00E2508025E3592D032B4205D001F0E5F8A023794ADB00D550E259774B520171D5A022D20094469A58764D00921207EA
:403300001DD5302200990A40102A18D11932FF32A95C012913D1002080267049A8540A68360332430A60A121C9005E586C4A32405A5061466B4A5A502B68032198472A26B0
:40334000009BFF36DB073BD52023009A1A4037D10933FF33EA54A122D200A158624B0B40A3508022A0235201DB00E2505F4B1B689B065B0F013B2B71E26D019BAA60943396
:403380001B78012B02D85A4B1340AB606B7A5B065B0F6B71DAB22B7AD9069B06DB0FC90EA971EB71AB5D002B04D152495248FDF7ADF901E001F07AF8062100202B68984729
:4033C000A0234E4ADB00E2500023E022AB55A2239200DB00E2508025E359ED002B4208D03C4B07211B6800209847A023374ADB00D5508025E3596D022B4208D0354B072117
:403400001B6800209847A023304ADB00D5508021E25949012D4B0A420DD0A120C0001D58314A2A401A50A022D2009950294B01211B68002098478025E359ED02234E2B427E
:403440000ED000210800FFF771FE002805D1A122D200B1582A4B0B40B350A023DB00E550E3591A4D9B0464D5942200202821194B5200FF3198545A5C009152B2824209DA50
:40348000A121C9006E58164A32406A501B680221984749E00F4B009A9B5C002B3CD0A0238022DB005203EA50052005F091FD8022144E12033368134226D0A1228021D200B3
:4034C000AB5849030B43AB5026E0C04600000A400C050000700400201C050000AC000A40771FFFFF88E00000FFEFFFFFA4000A40EF7FFFFF60000A407C0400207F0008040B
:40350000FFFFFBFFC4000A40052005F061FD80223368120313433360009A624B00999B5C604A013B5BB253548022A0239201DB00E2508026E35976035B4D334211D00520DE
:4035400005F046FD8021594A090313680B431360A122D200A958564B0B40AB50A023DB00EE50C023E2591B024F4D1A4210D000214C4B08001B689847D022A0231202DB0055
:40358000EA50A1228021D200AB5849010B43AB50E359454DDB0511D594220020414B5200985405211B689847A122D200A958414B0B40AB50A023404ADB00EA50E2593A4BBF
:4035C000920311D594220020A125364952008854ED005E59374A32405A51A022364DD2009D500B6804219847344A2F4BA258002A57D0324A99582022114202D0A221C900A7
:403600005A502E4BE25840231A420AD0A2222649D2008B502A4B1B68002B02D0042100209847264B204EE258C0235B031A4238D0A322D200B158234B00200B408021B350C0
:40364000214A0906536900250B435361FFF7B4FDA0231E4ADB00F2502A23124FFF33FD54E022A2239200DB00F250019B2900C0331B6828009B6B98470122019B6E331A7025
:403680003B68AB4202D00921280098478022104B12021A60B02280219200A35889020B43A350F7BD7004002000000A40C4000A40FFFFEFFFFFFEFDFF000102001C05000077
:4036C000A8050020FFFFE7FFFC000A407F04090480E200E010B504F053FC10BDF7B504000D00002800D1C04620000AF029FB06000AF04FFA242201901E212000FDF710F8B7
:40370000330087331B78002B4CD0A1363378002B48D196212000490004F072FA200004F0EBF954236343214AD3183F3319781700002915D101261E70002C11D100F008FE2F
:403740000A2005F045FC00F003FE31002000FEF757FF8522164992008B58164803438B50002D1FD054236343FB181A00012142321170598E1B8E994204D9002320001370D7
:4037800004F0B8FA54236343FD500B4DFA222B001E212000FDF728F82B0001221F212000FDF722F801980AF0F8F9F7BD340B002000000A4020002000857D000070B50C00D7
:4037C000052901D1FFF7F8FCA022A121144B1548D2009850C9005A5802435A50124BA200D258124B1A60052C07D08021104AC902136800200B43136011E00A240D4B0E4E7E
:403800001A681D00324206D0013C0A20E4B205F0DFFB002CF2D12B680F203342E5D070BD00000A400001020080E90000CC000A40C4000A40A4000A4007200000A32010B554
:40384000184BC0001C58184A22401A50A2229938FF38D200985000290AD11449144A086802400A60A121C9005858124A024011E0012910D10D490E4A086802408020C0018C
:4038800002430A60A121C90058580A4A02408020800002435A50A0220749D2000020995010BDC04600000A407FFEFFFFBC000A40FF80FFFFFFF9F6FB00060904F7B5A12503
:4038C000414BED005959414A04000A405A51A0223F49D20099509A2252004243944601923C4A1E00944460462830FF300278394F52B2002A06DA8020374980015A580243C3
:403900005A505EE0354A12681100354A0A400FD002780021013A52B2027080205A59400102435A51019B2B4A20009B58984748E063462633FF331A7001212000FFF7F6FB0B
:40394000002804D080227359D20213437351A122D200B35823481C490343B3509A235B001A006243BA182732FF3212780220012A02D14A68024301E04A6882436343FB1851
:403980004A6028331849FF330A681B78002B03D080231B031A4301E0144B1A4080239B021A439A235B005C433F193B0000202933FF3328371870FF373B78013B5BB23B705B
:4039C0000A600120FEBDC04600000A40FFEFFFFF98F014007004002004050000A4000A400120000088E00000C4000A40FFFFF7FF0221024A53688B435360704700000A40E7
:403A0000F0B585B004000AF049FA030087331B780500002B00D1DEE0B0217C226F4F89007B583E0093437B50AE239B00FA50030071331A78012A2CD1020067321278002A8E
:403A400027D19E352E78002E00D0C4E0644B1D780AF09FF84D2363435B19624A46339B00D3185E609A235B005C4312195519FF356B7DD023D4215C4ADB00FA50022289009F
:403A80007B5893437B50D2239B00FA500AF085F8A1E01B78002B00D09DE02B7A012B77D13433FF331A0062434E498A1810002E30FF3000780191002804D13032FF3212784A
:403AC000002A65D06343019AD3181A002F32FF321178C9B200297ED13033FF331970434B1A6B0293930753D5414B1F688023DB011F402B0067330393002F1BD02F008B3734
:403B00003A782000FFF726F93A7801212000FFF721F9384A314B9958374B0B402F498B500123039A072113702A0066321370334A13550FE039002000FEF7AEFE01212000CA
:403B4000FEF7AAFE039B08211F702B0066331F702A4B1F55200005F01BFA0322029B20001B6B9343029A1363B0229200B158244B0B40B3509A235B006343019AD31800220C
:403B80002E33FF331A702B006E331A70FFF71AFA2B0067331F78012F0AD18B352A7800212000FFF7D7F82A7839002000FFF7D2F8A920104A104BB15880000B40B35032581F
:403BC000104B11491A400A433250AA229200B05803400B43B35005B0F0BDC04600000A40AC0000207004002000020080FC000A40A4000A4004060000FFFBFFFFB80F00203C
:403C0000FFFFFBFFFEFBFFFF1040000070B50D000AF096F8C0221D4CD200A1581C4B0B4010210B43A350002D0AD08B30037819489B001B5CA15858025B0103430B43A3506B
:403C4000AA239B00E158144A0A200A40E250E25812490E4D0A43E25005F0BAF9AE2370229B00E250B02260219200A3580B43A350AD239B00E258A0235B011A4205D0AF2271
:403C80009200AB5840390B43AB5070BD00000A400FF0FFFFC4EA0000E8A3FFFF05140000F8B52027094B8C00094DE41863593B420AD128260A20665105F08AF96751300020
:403CC00005F086F9A0236351F8BDC04600000A406C08000070B50826054B064D8C00E41863590A203343635105F072F9665170BD00000A406C0800009A235B0058430D4BC5
:403D000030B5181802002F32FF321378002B10D003250949094C0B6B3030AB430B63B02189006558064BFF302B40635000231370037030BD70040020FC000A4000000A4064
:403D4000FFFFFBFFB123B022F0B5CC4C9B009200E558A35885B0AB43A350AE239B00E550002D00D1E6E0AB0332D584239B00E158C34A01270A400021E250E2588526BA4324
:403D80000800E250FEF73CFCC022B600A35992031343A351380005F01BF939000020FEF72FFC2022A35938001343A35105F010F9A3593800BB43A35105F00AF9A259B14B9C
:403DC00038001340A35105F003F90020FEF728FC6B0308D597220021AB4B5200995430220131FF329954C023DB001D4275D0B0229200A158A54B0B40A350A54B1A78039319
:403E00008023002A05D11B03029301230193053305E09B0302930C230193C0239B01AB270093BF000099E359944E0B400199CB40022B1FD1F359009901988B431900012371
:403E400083400B43F351AD239B00F3580299194208D18023002A01D19B0000E0DB00AF229200A3508B4B1B211A7800208A4BFCF7BBFC24E01B210020FCF778FC00281ED0FD
:403E80001B210020FCF78CFCF359009A019993431A0002238B401343F351AD239B00F358029A13420BD0039B1B78002B02D180239B0001E08023DB00AF229200A350B023BA
:403EC000039A9B001278E158002A02D18022920001E08022D2000A43E250C026760135420BD06E4B5B68002B02D0002108009847B0229200A3583343A3502B061AD5684BF7
:403F00001B68002B10D0AD239B00E2588023DB011340644A00D001231370FA22624B520033210020FCF760FCB02280219200A3580B43A350FD229200A158504B002916D0E4
:403F400001210D009858594A126895402A0005420DD0FC25AD00585990435851FA2080001A50534B1B68002B01D0002098478A23DB00E358414D002B27D04E4B484FEA58E2
:403F80004D4EEA50043BE85880239B00184012D08022AB5952021343AB51642005F018F81022AB599343AB513B68002B0DD000210F3A080008E0AA59404B1340AB513B68D3
:403FC000002B02D0020001009847D5239B00E258C023DB031A420AD0D222284992008B502E4B5B68002B02D0012100209847D5229200A1580222214B114214D0D420800035
:40400000195891431950D22189005A50D022D2009B581D4AFC32126A002A04D00121DB0B994300209047D5239B00E3582024134D234268D0C526D220B600AB5980005B0783
:404040009B0F022B40D1D42189006A58A2436A502C500620AA5982431343AB516B58002023436B50164B19211A78164BFCF7BCFBD0239B00EB585B0445D43BE000000A40D3
:40408000FFFFCFFFFFFFEFFF70040020FFF9FFFF200E0020180E002079230000C4020020880B00209A00002005240000E40D0020E00D0020440400001C060000FFFFFEFF8F
:4040C000B80A0020912300002C5019210020FCF74DFB002812D019210020FCF761FB0622AB599343023A1343AB51D0239B00EB585B0408D5D3239B00EC5004E0D422920090
:40410000AB58A343AB5005B0F0BDC046F0B50B7889B00293AE235B0043430E004E490792CA18039010000025FC3085650298022800D98FE05132FF321278012A00D189E0DE
:4041400003244443E318CC18A379444FDBB2069363792A000593802300979B012900300008F062FB0497A84200D0A571AE24039964006143384D72796B1812074533520FF5
:40418000FF331A7003230298D7B25843411869188979002902D00599B9425BD0029930004B4303994C4301211B19EB185A7100229971049B11000093202308F035FB00281A
:4041C00005D02C194834FF342378012B42D0029B013B012B13D8049B002200930721204B300008F021FB002834D11C4B0122009307211C4B300008F017FB00282AD1AE24FA
:40420000039D64006543144F6A467D192B00127A4633FF331A70049B00220093802311009B01300008F000FBFC350223002800D14023AB65079B002B0CD1029A03335343A2
:40424000039A54431C196B461B7E3F19BB716B461B7D7B7109B0F0BDCC020020FFFF0000F7FFFEFFFF7FFFFF482343431A00F0B5344B05255C339B181A000633DC7F0023A5
:404280001E0085B0A5425E41640002941224444345321278F5B20194029C2A4EA3423CDA01275C083B4207D1019F3C190A34A4003419E46D240C06E0019F3C190A34A400DD
:4042C0003419E46DA4B2022A26DC002C20D00F000E00083703973788A7421AD0039F0236BE42F8D1184E365C771EBE41F6B20396164E0027B446039EB7420AD201276445BC
:40430000F9D1FF265400764201326652D2B200E001250133DBB2BFE70125002453005C52482358435C3630180300453346301A7003780133DBB20370092B00D901252800F6
:4043400005B0F0BDCC030020B80F002001FF000088220021064B92009950103A985805490140995098580449014099507047C04600000A402200F0FFDFFFCFFF104B022014
:40438000002909D0892292009958814399509A58002A13D1852208E0882292009958814399509A58002A09D18422920098580549084203D101209958814399507047C046B1
:4043C00000000A40DCFF0F008922002110B5084B92009950103A9C580649214099509C580549214099500121FEF70AF910BDC04600000A402200F0FFDFFFCFFF0023F0B50B
:4044000085B00D000600039309F0C3FBD022244CD200A35880210193A0230905DB00E1509A235B0073431F496D04CB183933FF331978C023DB0207002B40002901D01A4D5A
:4044400001E08025AD002B43A350E02201215200A3580B43A3508021A0220905D200A3580B4206D1039BC72B03D8039B01330393F5E7022004F0ACFDE0235B00E5588022E9
:40448000A0231205DB00E25001993000FEF744F8380009F082FB2D0CE8B205B0F0BDC04600000A404C04002000020800F7B54C24154AFF34511D0B5DA525DBB21800083042
:4044C00001906D000198834216DA4A20FF304E5D085C864216D21E00485D18360B4FB6000230F659800010188662485D01330130C0B24855DBB2E5E70532135D59424B41A6
:40450000DB001355F7BDC0464C04002000000A4010B5224C0300210058310A5C0F20002A3BD19A00A2181E4CD4650122CA541D491D4A002B09D107248B68A343013C234368
:404540008B6013680C2183430BE08868174B0340C020C00103438B601168154B0B40C02109030B4313601349134A40248A60134AA320CA60A222124BD2009C50C0001A585C
:4045800022431A5018680F4A02400F48024300201A608A680D4B13408B6010BD4C0500202DB600000003044000030240FF8FFFFFFFFFF0FFFC000A40C2F14A40AFF44A01BC
:4045C00000000A40F7FFFF9F08000040FFFFFFBF70B59A240600640074430F4803193933FF331B780500002B0DD002213000FFF705FF011E07D09620C0020AF0FDF82C1935
:4046000080B2FE34A0879A20400070432818FE30808F80B270BDC0464C04002010B5024809F0AEFA10BDC046C05D000010B504000220002C05D1200009F030FCA0300470DA
:40464000200010BD10B504000220002C08D12000FDF7E6FF200009F021FC9E300470200010BD0000AE235B004343F7B51F4C1F00E3181A004832FF3201911178050001290D
:4046800032D14933FF331E780023033113700522FCF746F8032E08D8032307217343DB19E3181A7901320A401A71AE2252006A43A3184E33FF331E709A235B006B430C49FC
:4046C000A120CB1800214D33FF331970094BC0001E58094931401950A0210848C9005850A358019928009847F7BDC046CC0200204C04002000000A40770FEBFF88F0140088
:4047000010B5040009F0CAFBA4300268094B1A4205D020001021FFF7A5FF012009E0AE2040006043044B1818FC30806D431E9841C0B210BD43C00000CC02002010B50400BE
:40474000081F03282FD80AF043F8022A1E15AE235B006343144AD3184833FF331B78012B21D12000FFF7CCFF00281CD12000FFF7A5F818E0AE235B0063430B4A20219B58D7
:40478000200098470FE0AE235B006343064AD318190000225931FF31FC330A709A6520212000FFF75FFF10BDCC020020F0B58BB0040009F073FBAE235B006343B5490500D1
:4047C000CB181A004932FF3212782E0000921A005032FF321278943601921A004B32FF3210886A4610821A004D32FF3212785A330692C20B0792C205D20D02923678FF3377
:4048000008962E00953636781B780996002B27D0089B012B24D902230393069B002B07D0C30B05D11A33C70B93427F417B000393009B002B16D02B007D331B78002B0CD12A
:4048400001225D33FF336343CB184833FF331A7020212000FFF706FFA8E1099B012B01D803230393AE235B0019006143894E71184731FF310F78012F02D100270F7003978E
:404880006343F6185A36FF363378DBB2002B00D1CDE0069B002B2FD01A2A07D82B0098331B78002B02D17C4B03430493049B1B04D90F079100210191D90F1FD05B010DD480
:4048C0001A20049B02905B041B0F591C41438A420AD201005943521A93B204E0049B5B0A5B02049300230293029B0421981CFBF7F7FEC3B2019301E0069B0293099B990186
:40490000009B002B0AD12B006635673319782B7809025B011943089B9B0119430322009B5C485A43AE235B006343D21882181279069D5202ED032A43C51809954F35FF357B
:404940002D7810332A43019D2D032A43C5180A432E1D002117003000202209F030FF099A019B1169002206989B00DBB290420AD00798904207D06A46128A6B462A71120A17
:40498000727002221B7AD318DBB29A4205D008780131B0540132D2B2F7E76B4600229888069B3C4D934210D0079B93420DD1049B04211B0402981F43FBF792FEAE2301226C
:4049C0005B006343EB181E6980B2AE235B006343ED189A235B00634330496F63CD18FC35AE63CD18CB184B33FF3349351A70009BFF352870022B05D18021294AC9001368B1
:404A00000B431360009B9A00264BD258264B1A60E0231B013B401A00009B0133190401231343224A0B431360214BDF6078E01900009B002B07D12B006635673319782B7865
:404A400009025B01194303230098124A4343AE20400060431B18D3181F79019B15181B037F021F432B004F33FF331E78402333433B430B43019902958F000021B94219D0C3
:404A8000029D2E697658B44665460E18961975610431F3E7CC0200200080FFFF4C040020BC000A4080E90000C8000A40AC000A4000000A40AE204000604311184B639A21B3
:404AC0001218684649006143394D14326E18FC36B2636A1849320079FF321070002269184B31FF310A70009A022A05D180203149C0000A6802430A60009A91002E4A89584D
:404B00002E4A1160E02212011A401100009A0132100401220A432A4902430A60294AD3606B460C27DF579A23AE255B006343204A6D00D3184C33FF3365431F7009F029F884
:404B4000214E012275192B004833FF3307001A702000FFF7D5FD002825D12B004633FF331B78013B012B04D94E35FF352B78062B16D1009B013B012B12D8AE235B006343C7
:404B8000F6185A36FF363378002B02D0089B012B06D80E4B022204212000FBF725FE02E02000FEF78BFE380008F0F7FF0BB0F0BD4C040020BC000A4080E90000C8000A40F7
:404BC000AC000A4000000A40CC0200203D47000070B505000220002D20D14820104CFF30265C3938FF38012E18D05A20FF30205CA42040002154A721490062540722134084
:404C00005022FF32A354049B28002361A5235B00E5520233E554FFF7C9FD280070BDC046CC02002070B504000220002C1CD148200E4BFF301D5C3938FF38012D14D05A20C1
:404C4000FF30185CA42040001954A72149005A545022FF329C54053A9C52023220001C619C54FFF7A3FD200070BDC046CC02002002000220002A05D1032310005943024BC6
:404C800059188A717047C046CC02002002000220002A09D10323594346230448FF334118C25410008A710A717047C046CC020020F8B5022300285BD109F0F0F803002D4DE8
:404CC000943329681E782C4A2C4B0A402C49012E07D90C682B4F3C430C6001245968214306E00F68284C3C400C6003245968A1435960822304000100077CDB0113436734B0
:404D00006631002F22D0070075373F78002F09D12778012F1AD1012E13D97D300078002814D00EE0012E05D906007D363678002E03D10BE00E78012E08D179300378002B16
:404D400001D1862300E08E23DB01134341220F482B6003681B0C1B041A4323781C020B785B01234313430360094A0A4B1A6000231800F8BDBC000A40FF80FFFF00000A400C
:404D8000E8000A4000001080FFFFEF7FC4000A4041004100C0000A40F8B504000D1E05D1FEF726FE974B0F2205215CE001290CD10521FBF7F5FC2000FFF7A2FC002800D02F
:404DC0001FE12000FEF77AFD1BE1022903D1FEF70FFE202104E0032906D1FEF709FE08212000FFF73FFC0CE1042917D1AE235B0043438549CA184932FF321578052D0AD1E2
:404E00000721FBF7B3FC002800D1FAE029002000FEF7D4FCF5E05B581021F0E0052903D10721FBF7BDFCDAE7062920D1FEF7E0FDAE235B006343744A0421D3180122593368
:404E4000FF331A7020000432FBF76AFC9A21490061436E4B0022591828312000FFF756F903222900674B2000FBF7BEFCC9E0072960D10621FBF794FCAE235B006343624D16
:404E8000EB185933FF331B78002B09D09A21490061435E4B0122591828312000FFF736F9AE235B006343EB181A004832FF321278012A16D11A004932FF321278022A10D87D
:404EC000FC339B6D002B04D010212000FFF7CAFB07E02000FFF714FC002802D12000FEF7EDFCAE277F006743EE1933005933FF331B78002B15D0FC36B36D002B11D09A21B8
:404F0000380049006143414B38305918283128184322FBF7FBFBEB59B16D200098470023B365AE235B005C4300232D195935FF352B7066E0082931D1AE235B001A00424390
:404F4000314DAA185A32FF321278002A08D04343EB185C33FF331B78002B01D0FDF760FBAE26760033006343EB181A005A32FF321278002A02D05B33FF331B7866431021D0
:404F80002000FFF76FFBAB19190000225933FC31FF338A651A700121AB5930E0092916D11021FFF75FFB06212000FBF7F9FBAE235B00634314490020CA1815005B58802177
:404FC0005932FC35FF32A865C901107017E00A2917D11021FFF746FB06212000FBF7E0FBAE235B00634308490020CA1815005B5880215932FC35FF32A865090210702000AC
:405000009847F8BD3D470000CC0200204C040020084B012908D11A7802410A4209D081405A781143597004E0012181401A788A431A707047B005002010B50C24114B1873E2
:405040001B20D983597F1C718C3C0C43542118761A381874D87948430B4908183A300178032008409F214001214001430720814359773F211C7F18302140024081430A4346
:405080001A7710BDB0050020340B0020F7B58C4B15001A7901901C00FF2A00D10EE1022902D804221A7209E1042900D006E1383398790938072800D9F6E009F089FBE0F52B
:4050C000E02BF5F5F504220048326B78D17A8B421CD92200543212785B1A9207920F01329A4200DD1A00D2B29200102A00D91022230048335A71230020003833197B5830C1
:4051000002318900691809F051FB01E0002353710323C8E06B78012B00D89EE0230048339B7A0127022B03D0033B5F425F417F001F232A7A634E1340022B22D120000021CE
:405140007830202209F03BFB00210120CBB25A080340584258410332920052590301DA40330092B218334800C252002A02D001310429EAD10023721CD377B21CD377318BEC
:405180001EE0731CD87FEA688300E3189A676978431C0022022900D92A699B00E31802309A67C0B2731CB21CD877D37F0133DBB2D377032B0AD85B00F618318B002905D0CA
:4051C00003223800FFF738FF01234BE000234834627B217B01323A4CD2B2884236D98D006519AE6F002E2ED0364F4D086D007D192F8BE51858352F705D1CEDB26519583571
:405200003F0A2F709D1CEDB2651958352E70DD1CEDB26519370A58352F701F1D5D1DFFB2EDB2E71900955837350C3D70009D063365195835360E013ADBB22E70D2B20F2BA1
:4052400004D8002A02D00131C9B2C6E71C4A110048314B710323137205E02300002248335A7103232372164B1A7A012A1CD16A461279DA7100225A7106329A7114E02300A0
:4052800020000021483358301022597109F097FAAB78032B00D13BE78021221DD38F89000B43D38704232372054B1A7A012A05D0FF221A7100225A7106329A71F7BDC04637
:4052C000B005002030060020F7B504000E00019208F036FD030087331B780700002B04D1173E012E00D98FE059E0B01E142856D8464D474A09F06CFA2B3553535F53535392
:405300005155536A6A535353535353530B0040212000673702F024FE3B78002B0AD1063363433835ED188021012389002B71200002F016FE374D0335EB7F002B2FD0802112
:405340002000490102F00CFE0021E97750E00021304BDA1CD1775C331A7804310A431A7018E0062363433835ED1800232B71294D1375E91CCB77F0336343274A2000D3188D
:405380002833D97F5C35C9B208F000FD04222B7813432B709021C9012AE001231375002126E000211B4B0333D977137D8B42F6D0117580311CE0019B1B785B08072B12D01E
:4053C0000D2B10D0023B012BE9D80FE0019B1B78032BE4D10D2E09D1012280210D4B49010333DA7704E08021490001E080210901064B38331A79064B587D904200D00221D4
:4054000020005A7502F0ACFDF7BDC046B00500203008002030060020000100000A4B10B54833D87108F0B5FB8021084B49420B33DA7F0A43DA77F723054A11680B401360CA
:4054400008F0ABFB10BDC046B0050020300600200001044010B543210020FBF787F9002821D1114B5A791C00002A06D09A79002A03D104215A71197215E022000B4B0C32F4
:405480002179E07908F056FF022300280AD00023052218004321FBF7A7F9A379013BA37101236371237210BDB00500208D500000F0B5C44C89B025002300200048352E7A3A
:4054C00038335830102200219E7109F078F90023F01E6B71102800D97FE009F079F9096E1F38507E7E7E7E7E7E7E7E7E7E7E6400230052331B785B065B0E012B00D02EE109
:40550000002008F01DFC75300378002B00D1D5E300220421100008F047FFCFE3210048314B89A21CD387228F1A4022870122134000D0C3E310398B7104214C3423781A401A
:40554000A14B22705C331A788A431A70B6E32300102248335A719D4B1A789D4B1100481E81411972012A04D080221968D2010A431A60583407CB07C41B6823609EE323004C
:4055800052331B785B065B0E012B06D082220434E38F1343E38740239EE30223483463718C4B23828AE323000434E28F48331A820022E28710325A7180E3230052331A789F
:4055C00001231A4204D022004C3211780B40137000233834A37120337EE330000838C3B20A2B03D98223142E00D075E3230052331D786D066D0E013DEDB20C2E00D19AE077
:40560000002D00D0ABE00A2800D959E309F0EAF80B002B0058035F0058031E0129013B0175012F028B02002008F08AFB72300578EDB2002D00D086E101262378280033439D
:405640002370523408F014FB2388634A9B055B0FD15C009633003200280008F0CDFB280008F0EAFA2AE3002008F06AFB030075331B78002B00D166E123007F2252331B78AD
:4056800093431A000123002A10D12100533109780B400AD18A0700D455E1180008F0FEFB0322C3799343C37108E31300663002789A4200D102E3494B3D331B78002B00D03E
:4056C00041E109222373802322711B0131E0002008F036FB030075331B780500002B00D131E10C23C1799943230053331B789B0701D404231943002008F048FB230053334B
:405700001B78DB0704D52B0067331B78012B0BD0230052331B78DB0900D1CFE2280067300378002B00D0C9E20A232371002323732B4B6387C6E2270048377B7B28003E7B3C
:40574000039308F0FDFA214A0300515D00227A712200533212785206520E012A03D00434E38F022215E7B87A03286BD809F030F802193C52039B012B00D99FE2002900D142
:405780009CE2002E00D099E2012348342374FE336374F93B6371A674E674267566757A339AE2002900D189E2002E00D086E20D4B9B7D002B00D181E2FF210222090230007F
:4057C0003DE0C046B005002030060020B80F00209C000020FF3F0000D4E90000340B00204608000030080020002900D166E2002E00D063E21A0079321278002A00D15DE2AA
:40580000BC331B78002B00D158E2FF2102220902012014E0002900D150E2002E00D04DE21A0079321278002A00D147E2BC331B78002B00D142E20222FF2110000902FFF789
:40584000FBFB3FE20434E38F0422A2E6D24B48345B691A0A237462741A0C1B0EA274E37409E0CE4B1B78002B09D0CD4B3D331B78002B04D04834012363717F332CE2FF2306
:4058800048342374F7E7002008F05AFA75300378002B58D0C14B7F261D7807276B1E9D410023EDB2AB4200D308E223004833DB7A9C46002B1FD12100B74A5431136A5889DC
:4058C000884218D1210052310878D969B0430ED0002910D00120D1690143D161916981439161022260461A70DB69984703E01F70002900D088470123D4E7002008F020FA72
:40590000230006002000002252331B7848304271DB0993421BD075363378934213D02500C37A38352B7323005433197822738B079B0F01336B73422363873E3B194200D188
:4059400003232371BEE10434E38F102221E6230054331A7853076DD5D506AD0F012D31D0002D02D0022D47D060E02B002F00727ABA4223D9B27A01213A410A421BD020006A
:405980004830C27AAA420DD85A1839009B0008311033D2B289000392C0187118042208F005FF039B22005432127801359207EDB2920F9A4202DB0137FFB2D8E748349B0024
:4059C00063717BE133007E331B78C17A8B4200D874E19207920F01325B1A101CDBB2D2B29A4200D9181C2300C2B22000483392005A715830423134E0737AC17A8B4200D858
:405A00005CE19207920F01325B1A9A4200DD1A00D2B29200102A00D91022230020000831483389005A71583071181DE00434E38F0122AEE5F37AC17A8B4200D83EE192075B
:405A4000920F01325B1A9A4200DD1A00D2B29200102A00D910222300200048335A7158300E3189007618311D08F0A0FE26E14D4F05AD791D0422280008F098FE390006AEB0
:405A80000A310622300008F091FE002008F058F90700002008F044FD03000220834202D8002008F03DFD4000335A220038004832B8301382037801275906890F695C1B094C
:405AC000917421005B310E783B40BE431A0033001343022293431E00457882782D091207930F3D40DA00BD4033002B431825AB431343202293430B700368093D5B0B2B4004
:405B00001A004B78AB4313434B70F0230268DB001A4203D004220B7813430B700523483463717B33D8E0002008F00AF907002000250058300922002108F041FE238F483509
:405B40002B82002323873B0072331E78F6B2012E00D0A8E008226B8A13436B823B003A0075331B7867320392002B1DD0072203216B8A93433A000B436B82039BFC321B78C2
:405B8000002B05D12B7E8B4333432B76536D00E0136DE36546E0C046C00A0020B80F0020340B0020D4E90000BB78002B04D107226B8A934333430DE0012B04D107226B8A2C
:405BC0009343033A05E0022B05D107226B8A9343023A13436B82039B1D78002D22D1280008F05CF90300AC331A880A23FA215A43AE30038889005343180008F0BFFC80B281
:405C0000032201232C2806D8DB181A2803D82B000E2800D9130021004831087E1340904303430B76039B1B78012B05D1220010214832538A0B4353823B0074331B78032BDC
:405C400006D122004832538A2549DB04DB0C19E0042B06D122004832538A2249DB04DB0C10E0220066373B784832002B05D18021538A8901DB04DB0C04E08021538AC90120
:405C8000DB04DB0C0B435382174B3D331B78002B00D0022621004831488A144A7301104006001E434E820421114B48345C331A788A431A700923637177330DE080230BE014
:405CC000022309E000230622E371637101332372A271FFF7BFFB1023180009B0F0BDC04600A0FFFF00C0FFFF340B00201FE0FFFF30060020F8B50F001600040008F0CEF83E
:405D00006E22050008212000B678FBF7C7FB042F26D1F31E1B4F012B01D9102E0FD108212000FAF73DFD942382229B0063439200FB18991800220A7013495B181A709423C8
:405D40009B006343FF18114BFF1800233B70042E16D181352B700521200008F0BDFB0FE0032F04D108212000FAF71AFD08E094239B005C43034B1C19044BE4180023237086
:405D8000F8BDC04648080020090200000A020000F0B58BB005000E00170008F07FF803008133019304001878022811D1731E012B09D9002E09D12200823213780133DBB274
:405DC0001370052B51D903204FE0042E4DD1FAE703284AD1042EF6D13F223B7A9343402BF1D13900280006F059FD061E38D0230067331B78012B31D1270000237E373E78DF
:405E0000B200934207D019000D31FF31605803A958500433F5E7280008F048F82300FC331B69039A53409B020ED12100113104AAFF310133B34208D201CA844601C9844510
:405E400008D10133DBB2F5E70023B34202D13A789A4203D01221280006F03CFC002004E02800052108F038FB3000002380342370019B18700BB0F0BDF7B50600042900D085
:405E8000A9E01F2311790B40042B00D099E05489E405A40F00D194E008F000F88378013C9C4200DD8DE0002E00D08DE0300007F0F5FF03009D331B78002B00D084E001333D
:405EC0009E300370300007F0E9FF494B07001D78484A0A2329003000FCF73CFC4649474B4919FF314A7DD4229200944650331B78022101936346424C6F37A2588A43E25060
:405F0000D2229200A150C021019BC9025B040B401A0080239B0013431843D023394ADB00E050A158384B0B403978012901D0802100E0A02109030B43A350A023AD009B0160
:405F40002B43324D0A202B61314B6B61314BAB61A0231B03EB61304B2B6203F039F86B69C0215B005B086B61A223A3224903DB00E150D200A35800200B43A3508022AE2393
:405F800092029B00E2502A69244BC021134080222B612B6912061343214A2B61136809060B431360842209219200A3580B43A350FEF70AFA85229200A3581A490B43A35069
:405FC00002E03000FEF73EFB94239B005E43164B9E19164B08E0032909D094239B005E43114B9E1993239B00F61800233370F7BDAC0000208813000070040020480A0020BC
:4060000000000A4004060000FFFFE1FFFC000A40AFA02880012003000000EE02FFDFFFFFE0000A4009002000480800204D020000F0B58BB00400069107F030FF94239B00FC
:406040001A006243C44EC549B21851180D78C4490700511809786846029183218900511809780391007B06A9C873BE495118097807918521890051180968059184218900E4
:40608000521812880492069A022A25D1039B013B012B02D9032D00D085E13B0094331B78012B0AD83B0066331B78012B00D17AE1C42301215B00F95463E03B007D331B7869
:4060C000002BF5D03B00C0331B682000DB699847002800D067E1EBE7069803380B2800D902E208F07FFB0C003E004A00520001029E0001020102E200010201022601032DA3
:4061000003D11421200008F0E7F906ABDB7B013B012B0CD8002D0AD1029B0D2B07D106AA02339B181A001321200008F0E3F90321200005F073FF94239B006343F6188A4BF6
:40614000F6183288002A04D00921200006F064FBCAE1200006F098FA2621200006F0BAFAC2E16343F618814B0021F6183378012B07D12000FBF790FBB6E1039B0121002B36
:40618000F7D0200005F04AFFE6E7634388218622F558F618872389007118098892009B00B2181278F31800911B680399280006F03BFB021E07D1009003996D4B280006F0C4
:4061C00033FB011E21D03B0067331B78002B08D13B0084331B78042B01D0012B01D10C2100E0262194257F26AD006543200006F071FA594F0421EA59200006F0DBFAEB59AB
:406200005B79B34300D0B5E06EE1200005F006FF564BF6183378022BABD0200000F066FF62E10221200005F0F9FE012D03D1029B11210F2B00D01021200008F04DF906ABC2
:40624000DB7B013B012B87D8002D85D1029B0D2B00D081E794239B006343F618832303229B00F3181D703D4B2721F3181A703C4BF3181D703C4BF3181D803A4BF3181D709D
:4062800085239B00F3181D6084239B00F3181D8086239B00F3181D7087239B00F3181D6088239B00F618358057E709212000FAF777FA80212000490008F04EF894229200FD
:4062C0006243B3181900A631FF310978012900D142E700290ED1A533FF331B78002B00D13AE78932FF32B6180F2200962000FEF76FFCF9E0032904D10D31200000F0D2FDAF
:40630000F2E0200007F0CAFD030094331B780500012B00D820E7030002229C331A7020001932092106F078FA28002623A2300370DAE009212000FAF733FA802120004900E1
:4063400008F00AF83B0026228021A2331A70C901200007F06BFFC7E0480800200D0200000E0200000F020000120200000B020000100001000421200007F0EEFF200000F0A3
:40638000CDFDE959CB791A00B2430AD01A225B061B0F01335343CA88D205D20D934200D2A2E00421D4E7032D00D99DE0280008F00FFA0209107506ABD97B029A2000FEF70D
:4063C00031FC91E006ABD97B059B029A0093079B8CE706ABDE7B6B461D8A002C00D083E0424C23004833FF331B78012B7CD022005A32049BFF321278D9055B04C90D1B0FA7
:40640000002A27D0059A002A0CD107F0C2FB012305004834FF34002023701021FEF722F928005FE0822252009142EED8049AD802550A6D022E4A0D432A4002437B20151C96
:40644000120A8243802A05D1002B03D0663A5A439142DAD922004932FF32167022006E464F32367AFF321670220000205032FF321070059A6D0A22616D02DA021C4B2943BC
:4064800019400B00134322004B32FF32138001234D34FF342370FEF789F925E001212000FEF7F4FB02212000FEF7F0FB002C1BD10E4B1D004835FF352A78012A14D0062673
:4064C0004933FF331E7007F064FB012307002B702000FEF715F9002803D131002000FDF76DF9380007F059FB0BB0F0BDCC020020FF87FFFFF0B585B00D00040007F0CEFC71
:406500000600A81E0C2800D9B0E208F06BF90D00AF02AF02AF023F00AF0221007500AF02AF02AF02AF023500330094331B78012B00D89BE2330067331B78012B00D095E214
:4065400030008B3003780522012B00D08EE218E033009C331A78002A03D0002204211A7084E03000A43003689B0500D57EE20221200004F0E4F879E22421200006F0AAF8B5
:406580000E220921200006F047F96FE235009C352B78012B06D109212000FAF7E7F8002800D0F1E00021200029700A0006F002F9330094331B78012B11D9330067331B7873
:4065C000012B0CD130008B300378012B07D10B212000FAF7E5F80221200004F0B0F820000921FAF7DDF8C0212000890007F0B4FE200000F07BFD39E2200007F04FFC0300E4
:4066000067331B7807000193030084331B780500029303009C331B7809212000CC3703933E68FAF7BDF880212000490007F094FE2B0094331B78012B23D9029B052B20D01A
:40664000019B012B1DD1039B002B1DD12B008B331B78012B0ED00199200004F070F812220B212000FAF71AFF80218900200007F0DDFDFBE10B212000FAF778F8002811D0DA
:40668000F2E7039B002B0DD094239B006343DA4AD318DA4A9B186A46127B1A702B0000229C3307E094239B006343D34AD318D34A9B1800221A70029B132B00D9D6E11800B4
:4066C00008F090F8140019004D00250019005E00620066009400CA00D300DF00EA001D013500410018018C019401AC011221200005F0F0FFAFE1942292006243BE4B0721E1
:406700009A18BF4BD2180223137001220BE094239B006343B84A0821D318B94A9B1802221A701023013A200000F0A4FC9EE194239B006343B04A1121D318B14A9B1802220D
:406740001A701300EFE794239B006343AA4A1221D318AB4A9B1802221A700423E3E7019B012B0BD194239B006343A34A1521D318A44A9B186A4612791A702BE1012172E1C4
:40678000200005F0EAFF71E12000FBF785F86DE194239B006343984A0320D31883229200991800220A70984959180870974959180A70974959180A80964959180A70852160
:4067C000890059180A608421890059180A808621890059180A708721890059180A60882189005B18FA391A80FF39F3E031782000FEF74CFA94239B0063437F4A3178D3180F
:40680000832292009A1811707F4A0D20991800220A707E49591808707D490E30591808807C4959180A708521890059180A608421890059180A808621890059180A70872257
:40684000082192009A181160882292009B18012252421A801F31BDE094239B006343664AD3186D4A9B18092213E02B78022B85D194239B006343604AD318674A9B180A22AF
:4068800007E094239B0063435B4AD318624A9B180B221A701D219DE094239B006343564A3178D318832292009A183079357B1170554A0F27991801220A7054491036591832
:4068C0000F70534959180D805249591808708521890059180E60842100208900591808808621890059180A708722802192009A18090267E0330032791033052172E03B686F
:4069000058780338082829D894233B499B0007F05FFF091025192505052121008021022289001DE06343364ACB189B1802221A7006E06343324ACB189B1802221A70013AEC
:4069400020210DE063432E4ACB189B18022280211A7005E080210222090101E002220021738875780193B368234802939423844683209B0063438000634484469C44604699
:406980003778367B077020481F18022038701F481F181F483D701D182E8000261D481D1805302E701D180298286084206D468000AD881818058086208000181802708722E6
:4069C00092009A181160882292009B180122272152421A80200005F07DFE47E0012206213B681033200000F009FB3FE01021200000F058FA3AE0C046480800204B020000D0
:406A00000B020000070200000D0200000E020000120200000F020000470200002B00A2331B780021262B1ED12B7C002B13D02B00012281331A700022083B1A702000C0357A
:406A4000FAF718FE2B682000DB699847002802D02000FAF7DBFE2000032105F0DFFA200005F012FE02E0200005F0D8FA05B0F0BDF8B59424A4004443164D02272C198325EA
:406A8000AD00661900253570134EA6193770134EA6193170124961180D80124961180D708521890061180B6084239B00E3181A8086239B00E3181D7087239B00E3181D6033
:406AC00088239B00E41801235B422380272105F001FEF8BD480800200D0200000E020000120200000F02000010B50400062911D0082923D0022924D10731F9F751FE802116
:406B00002000490007F028FC14220921200005F083FE16E08021090305F028FF00280DD094239B006343074A1C21D318064A20009B1813221A7005F0CDFD02E02000FBF711
:406B40007BFA10BD480800204702000010B5062908D0082909D002290AD11C22073105F05BFE05E0FBF768FA02E0202105F0B2FD10BD000070B5040005F090FD94239B00B0
:406B800019008E20032561430A4A80005118081805700948091808780D21132800D10F318E20634380001B18D218200007F0A2FC70BDC0464808002047020000F7B50E00B8
:406BC000040007F06BF90500B01E062860D807F0FFFD043C4D4D4D514D002B000126C0331F68593B1E70083301931978200003F09BFD2B0070331978200003F0C2FC019B80
:406C000020001B78EB181A0090338E3216701E702B000C2283331A700F3B1E70FEF748F8642002F0D5F900236E352B7020007B68184998472000FB6817499847142209213D
:406C4000FF32200005F0E8FD22E02000FFF792FF94239B006343114A0E21D318104A20009B1801221A7005F035FD11E02000FBF7E3F90DE009212000F9F792FD802120007C
:406C8000490007F069FB062200212000FDF7CAFFF7BDC04688130000F9C50000480800200302000010B50400062909D0082924D0022925D1E1220731520005F0ADFD1FE040
:406CC000402105F053FE002817D02000FFF752FF94239B0063430B4AD3180B4A9B181B78132B05D1200007F0D9F801236A3003700A21200005F0EEFC02E02000FBF79CF9C4
:406D000010BDC046480800204702000070B594240500A4006C43FDF7CBFF0C4E2800A259042105F047FD8E22331992009B1803221A708E239B00E218921928000F2107F0C9
:406D4000D9FB2800262105F0C5FC70BD4808002070B504000E0007F0A1F80500062E09D0082E23D0022E24D164220921200005F053FD1EE04021200005F0F8FD002815D0CB
:406D80002B007033197850331B6820009B69984700237D352B7094239B006343054A20009B5803229A70FFF7B1FF02E0200005F0D4FC70BD4808002070B50D00040007F03B
:406DC0006DF802000300C032A81E1268062830D807F0FEFC040F1616162F1A00703319782000536998470A220921200005F014FD1FE001227D331A702000FFF787FF18E0D7
:406E0000200005F0AAFC14E0D36920009847011E08D0062200212000FDF704FF2000FAF7F5FC06E0200005F0F9F82621200005F051FC70BD70B50D00040007F02FF8022DCA
:406E40002AD1030066331B78144D012B0CD1020081321370942300229B0063431049EB1880305B1802701A702000FAF703FC94238E219B0063438900EA1852180321117060
:406E80008E2292009A180B312000AA1807F032FB2621200005F01EFC70BDC046480800200202000094239B004343174A10B5D318832292009C1800222270144C1C192270D0
:406EC000134C1C192170134959180A80124959180A708521890059180A608421890059180A808621890059180A708721890059180A60882292009B18012252421A802721EE
:406F000005F0E8FB10BDC046480800200D0200000E020000120200000F020000F7B5040006F0BCFF94239B006343284A01909E581500B7780E2F37D801210800B840244F7B
:406F4000384242D11827384228D1163F40062CD5D318204A9B181970F3881F4ADB05DB0DBB420AD13389002B07D1537C107C1B020343D31806310B220CE0517C107C174DAC
:406F80000902014351182800042207F00FFC2B00122207212000FFF76BFD16E0D3180D4A0F009B18197000E0022701981B229C3007700921200005F02FFC94239B006343BD
:406FC0001E21EA58200007F095FAF7BD48080020A67000000B02000000010000B000002010B5040006F05AFF943003780421012B00D90C312000FFF755FF10BDF8B59424F8
:40700000A4004443164D01272C198325AD00661900253570134EA6193770134EA6193170124961180D80124961180A7085229200A218136084239B00E3181D8086239B00FC
:40704000E3181D7087239B00E3181D6088239B00E41801235B422380272105F03BFBF8BD480800200D0200000E020000120200000F02000070B59424A4004443164D2C1999
:407080008325AD00661900253570144EA6193570134EA61931701B26124961180E80124961180D708521890061180D608421890061180D808621890061180A708722920010
:4070C000A218136088239B00E41801235B422380272105F0FFFA70BD480800200D0200000E020000120200000F020000F0B585B0040006F0D3FE00210390200004F08EFFAC
:4071000009212000F9F74CFB802194274900200007F022F926220021BF00039B6743A233BF4D1A70BF4AEB199B181970200005F01DFC2E00011E00D1B8E0200006F0AEFE2D
:407140000300B9596733897805001A780378881E112800D95CE107F045FB480037014B014B01370112002E005B005B005B0037015B015B015B014B0164008100A0009421AE
:407180000127890061437618A64976183770002A0CD1022B00D03BE1200006F087FE2B007E350D33FF332A7839001AE01221012A00D02DE128E09421890061437618994952
:4071C000761801213170002A02D0022B00D01FE1200006F07BFF2B0004217F3529332A78FF332000FFF70AFF02E194239B006343F6188C4BF11801230B70002A00D007E118
:407200001721894AB6183370200005F063FAEFE094239B006343F618844BF61831701C21F2E7942292006243B6187E4AB61801223270002B00D1EBE08223AA7AFF330221FC
